:020000040800F2
:1000000000500020453E00085D3D0008633D0008AB
:10001000693D00086F3D0008753D000800000000C4
:100020000000000000000000000000007B3D000810
:10003000873D000800000000933D00089F3D000838
:100040008D3E00088D3E00088D3E00088D3E000864
:100050008D3E00088D3E00088D3E00088D3E000854
:100060008D3E00088D3E00088D3E00088D3E000844
:100070008D3E00088D3E00088D3E00088D3E000834
:100080008D3E00088D3E00088D3E00088D3E000824
:100090008D3E00088D3E00088D3E00088D3E000814
:1000A000AD3D0008C13D0008D53D0008E93D000810
:1000B000FD3D0008113E0008253E00088D3E000869
:1000C0008D3E00088D3E00088D3E00088D3E0008E4
:1000D0008D3E00088D3E00088D3E00088D3E0008D4
:1000E0008D3E00088D3E00088D3E00080000000097
:1000F0000000000000000000000000000000000000
:0C01000000000000000000005FF808F1A3
:1001100010B5054C237833B9044B13B10448AFF341
:1001200000800123237010BD880000200000000023
:100130006878000808B5034B1BB103490348AFF3C7
:10014000008008BD000000008C00002068780008D6
:1001500081F0004102E000BF83F0004330B54FEA78
:1001600041044FEA430594EA050F08BF90EA020FE5
:100170001FBF54EA000C55EA020C7FEA645C7FEA78
:10018000655C00F0E2804FEA5454D4EB5555B8BF9B
:100190006D420CDD2C4480EA020281EA030382EA0C
:1001A000000083EA010180EA020281EA0303362D9E
:1001B00088BF30BD11F0004F4FEA01314FF4801C71
:1001C0004CEA113102D0404261EB410113F0004F83
:1001D0004FEA03334CEA133302D0524263EB43033A
:1001E00094EA050F00F0A780A4F10104D5F1200ED8
:1001F0000DDB02FA0EFC22FA05F2801841F1000133
:1002000003FA0EF2801843FA05F359410EE0A5F106
:1002100020050EF1200E012A03FA0EFC28BF4CF037
:10022000020C43FA05F3C01851EBE37101F00045ED
:1002300007D54FF0000EDCF1000C7EEB00006EEBFA
:100240000101B1F5801F1BD3B1F5001F0CD3490884
:100250005FEA30004FEA3C0C04F101044FEA4452DB
:1002600012F5800F80F09A80BCF1004F08BF5FEA62
:10027000500C50F1000041EB045141EA050130BD42
:100280005FEA4C0C404141EB0101013C28BFB1F554
:10029000801FE9D291F0000F04BF01460020B1FA9F
:1002A00081F308BF2033A3F10B03B3F120020CDA72
:1002B0000C3208DD02F1140CC2F10C0201FA0CF050
:1002C00021FA02F10CE002F11402D8BFC2F1200CB5
:1002D00001FA02F120FA0CFCDCBF41EA0C0190406B
:1002E000E41AA2BF01EB0451294330BD6FEA0404B4
:1002F0001F3C1CDA0C340EDC04F11404C4F120029F
:1003000020FA04F001FA02F340EA030021FA04F3B0
:1003100045EA030130BDC4F10C04C4F1200220FA07
:1003200002F001FA04F340EA0300294630BD21FA45
:1003300004F0294630BD94F0000F83F4801306BF0B
:1003400081F480110134013D4EE77FEA645C18BFFF
:100350007FEA655C29D094EA050F08BF90EA020F96
:1003600005D054EA000C04BF1946104630BD91EA8E
:10037000030F1EBF0021002030BD5FEA545C05D191
:100380004000494128BF41F0004130BD14F58004D0
:100390003CBF01F5801130BD01F0004545F0FE4144
:1003A00041F470014FF0000030BD7FEA645C1ABF79
:1003B000194610467FEA655C1CBF0B46024650EAB0
:1003C000013406BF52EA033591EA030F41F40021DC
:1003D00030BD00BF90F0000F04BF0021704730B562
:1003E0004FF4806404F132044FF000054FF0000137
:1003F00050E700BF90F0000F04BF0021704730B5F8
:100400004FF4806404F1320410F0004548BF4042CC
:100410004FF000013EE700BF42004FEAE2014FEA21
:1004200031014FEA02701FBF12F07F4393F07F4FFC
:1004300081F06051704732F07F4208BF704793F0FF
:100440007F4F04BF41F40021704730B54FF4607412
:1004500001F0004521F000411CE700BF50EA010215
:1004600008BF704730B54FF000050AE050EA0102BE
:1004700008BF704730B511F0004502D5404261EB2E
:1004800041014FF4806404F132045FEA915C3FF46F
:10049000D8AE4FF003025FEADC0C18BF03325FEA0C
:1004A000DC0C18BF033202EBDC02C2F1200300FABD
:1004B00003FC20FA02F001FA03FE40EA0E0021FAE2
:1004C00002F11444BDE600BF70B54FF0FF0C4CF4D0
:1004D000E06C1CEA11541DBF1CEA135594EA0C0F82
:1004E00095EA0C0F00F0DEF82C4481EA030621EABD
:1004F0004C5123EA4C5350EA013518BF52EA0335F8
:1005000041F4801143F4801338D0A0FB02CE4FF0A9
:100510000005E1FB02E506F00042E0FB03E54FF0D9
:100520000006E1FB03569CF0000F18BF4EF0010ED1
:10053000A4F1FF04B6F5007F64F5407404D25FEACD
:100540004E0E6D4146EB060642EAC62141EA555180
:100550004FEAC52040EA5E504FEACE2EB4F1FD0CC2
:1005600088BFBCF5E06F1ED8BEF1004F08BF5FEA40
:10057000500E50F1000041EB045170BD06F00046F2
:1005800046EA010140EA020081EA0301B4EB5C049F
:10059000C2BFD4EB0C0541EA045170BD41F4801197
:1005A0004FF0000E013C00F3AB8014F1360FDEBFBC
:1005B000002001F0004170BDC4F10004203C35DA98
:1005C0000C341BDC04F11404C4F1200500FA05F31B
:1005D00020FA04F001FA05F240EA020001F00042BC
:1005E00021F0004110EBD37021FA04F642EB060132
:1005F0005EEA430E08BF20EAD37070BDC4F10C045C
:10060000C4F1200500FA04F320FA05F001FA04F21F
:1006100040EA020001F0004110EBD37041F100010B
:100620005EEA430E08BF20EAD37070BDC4F1200516
:1006300000FA05F24EEA020E20FA04F301FA05F27E
:1006400043EA020321FA04F001F0004121FA04F226
:1006500020EA020000EBD3705EEA430E08BF20EAF6
:10066000D37070BD94F0000F0FD101F00046400030
:1006700041EB010111F4801F08BF013CF7D041EAB2
:10068000060195F0000F18BF704703F000465200B6
:1006900043EB030313F4801F08BF013DF7D043EA87
:1006A0000603704794EA0C0F0CEA135518BF95EA3D
:1006B0000C0F0CD050EA410618BF52EA4306D1D1C4
:1006C00081EA030101F000414FF0000070BD50EAE3
:1006D000410606BF1046194652EA430619D094EA6D
:1006E0000C0F02D150EA013613D195EA0C0F05D157
:1006F00052EA03361CBF104619460AD181EA0301AB
:1007000001F0004141F0FE4141F470014FF0000062
:1007100070BD41F0FE4141F4780170BD70B54FF0FD
:10072000FF0C4CF4E06C1CEA11541DBF1CEA13557D
:1007300094EA0C0F95EA0C0F00F0A7F8A4EB05045F
:1007400081EA030E52EA03354FEA013100F0888056
:100750004FEA03334FF0805545EA131343EA12631F
:100760004FEA022245EA111545EA10654FEA0026D4
:100770000EF000419D4208BF964244F1FD0404F58D
:10078000407402D25B084FEA3202B61A65EB0305E9
:100790005B084FEA32024FF480104FF4002CB6EBA6
:1007A000020E75EB030E22BFB61A754640EA0C0026
:1007B0005B084FEA3202B6EB020E75EB030E22BF66
:1007C000B61A754640EA5C005B084FEA3202B6EBA7
:1007D000020E75EB030E22BFB61A754640EA9C0066
:1007E0005B084FEA3202B6EB020E75EB030E22BF36
:1007F000B61A754640EADC0055EA060E18D04FEAF4
:10080000051545EA16754FEA06164FEAC30343EA93
:1008100052734FEAC2025FEA1C1CC0D111F4801F60
:100820000BD141EA00014FF000004FF0004CB6E759
:1008300011F4801F04BF01430020B4F1FD0C88BFF8
:10084000BCF5E06F3FF6AFAEB5EB030C04BFB6EB03
:10085000020C5FEA500C50F1000041EB045170BDF6
:100860000EF0004E4EEA113114EB5C04C2BFD4EB23
:100870000C0541EA045170BD41F480114FF0000EA7
:10088000013C90E645EA060E8DE60CEA135594EA23
:100890000C0F08BF95EA0C0F3FF43BAF94EA0C0F26
:1008A0000AD150EA01347FF434AF95EA0C0F7FF49B
:1008B00025AF104619462CE795EA0C0F06D152EAEF
:1008C00003353FF4FDAE1046194622E750EA4106D3
:1008D00018BF52EA43067FF4C5AE50EA41047FF4E4
:1008E0000DAF52EA43057FF4EBAE12E74FF0FF3C49
:1008F00006E000BF4FF0010C02E000BF4FF0010C1A
:100900004DF804CD4FEA410C7FEA6C5C4FEA430C92
:1009100018BF7FEA6C5C1BD001B050EA410C0CBFE1
:1009200052EA430C91EA030F02BF90EA020F002043
:10093000704710F1000F91EA030F58BF994208BFAA
:1009400090422CBFD8176FEAE37040F00100704767
:100950004FEA410C7FEA6C5C02D150EA013C07D1BE
:100960004FEA430C7FEA6C5CD6D152EA033CD3D009
:100970005DF8040B704700BF8446104662468C4603
:100980001946634600E000BF01B5FFF7B7FF002836
:1009900048BF10F1000F01BD4DF808EDFFF7F4FF5F
:1009A0000CBF012000205DF808FB00BF4DF808EDEA
:1009B000FFF7EAFF34BF012000205DF808FB00BF0D
:1009C0004DF808EDFFF7E0FF94BF012000205DF82F
:1009D00008FB00BF4DF808EDFFF7CEFF94BF0120E4
:1009E00000205DF808FB00BF4DF808EDFFF7C4FFDD
:1009F00034BF012000205DF808FB00BF4FEA410C26
:100A00007FEA6C5C02D150EA013C0AD14FEA430C08
:100A10007FEA6C5C02D152EA033C02D14FF0000045
:100A200070474FF0010070474A0011D212F50012D2
:100A300011D20DD56FF47873B3EB62520ED44FEA36
:100A4000C12343F0004343EA505323FA02F07047B6
:100A50004FF00000704750EA013002D14FF0FF30F4
:100A600070474FF0000070474FEA4102B2F1E04397
:100A700024BFB3F5001CDCF1FE5C0DD901F0004C85
:100A80004FEAC0024CEA5070B2F1004F40EB8300D5
:100A900008BF20F00100704711F0804F21D113F101
:100AA0003872BCBF01F00040704741F480114FEA3A
:100AB0005252C2F11802C2F1200C10FA0CF320FAC3
:100AC00002F018BF40F001004FEAC1234FEAD323E0
:100AD00003FA0CFC40EA0C0023FA02F34FEA43034A
:100AE000CCE77FEA625307D150EA01331EBF4FF0D3
:100AF000FE4040F44000704701F0004040F0FE40EE
:100B000040F40000704700BF80F0004002E000BFEA
:100B100081F0004142001FBF5FEA410392EA030FE8
:100B20007FEA226C7FEA236C6AD04FEA1262D2EB32
:100B30001363C1BFD218414048404140B8BF5B4237
:100B4000192B88BF704710F0004F40F4000020F0D0
:100B50007F4018BF404211F0004F41F4000121F0E6
:100B60007F4118BF494292EA030F3FD0A2F1010230
:100B700041FA03FC10EB0C00C3F1200301FA03F16E
:100B800000F0004302D5494260EB4000B0F5000F91
:100B900013D3B0F1807F06D340084FEA310102F150
:100BA0000102FE2A51D2B1F1004F40EBC25008BF02
:100BB00020F0010040EA03007047490040EB0000CC
:100BC000013A28BFB0F5000FEDD2B0FA80FCACF1CD
:100BD000080CB2EB0C0200FA0CF0AABF00EBC250FA
:100BE00052421843BCBFD0401843704792F0000FE8
:100BF00081F4000106BF80F400000132013BB5E73B
:100C00004FEA41037FEA226C18BF7FEA236C21D0B0
:100C100092EA030F04D092F0000F08BF0846704715
:100C200090EA010F1CBF0020704712F07F4F04D1E3
:100C3000400028BF40F00040704712F100723CBFF6
:100C400000F50000704700F0004343F0FE4040F420
:100C5000000070477FEA226216BF08467FEA2363DE
:100C60000146420206BF5FEA412390EA010F40F4C9
:100C7000800070474FF0000304E000BF10F0004315
:100C800048BF40425FEA000C08BF704743F09643FC
:100C900001464FF000001CE050EA010208BF704717
:100CA0004FF000030AE000BF50EA010208BF70479E
:100CB00011F0004302D5404261EB41015FEA010CB3
:100CC00002BF84460146002043F0B64308BFA3F1AB
:100CD0008053A3F50003BCFA8CF2083AA3EBC2538D
:100CE00010DB01FA02FC634400FA02FCC2F12002AC
:100CF000BCF1004F20FA02F243EB020008BF20F0E3
:100D00000100704702F1200201FA02FCC2F1200248
:100D100050EA4C0021FA02F243EB020008BF20EA3D
:100D2000DC7070474FF0FF0C1CEAD0521EBF1CEA6B
:100D3000D15392EA0C0F93EA0C0F6FD01A4480EA59
:100D4000010C400218BF5FEA41211ED04FF0006342
:100D500043EA501043EA5111A0FB01310CF000406E
:100D6000B1F5000F3EBF490041EAD3715B0040EA94
:100D7000010062F17F02FD2A1DD8B3F1004F40EB64
:100D8000C25008BF20F00100704790F0000F0CF037
:100D9000004C08BF49024CEA502040EA51207F3AFB
:100DA000C2BFD2F1FF0340EAC250704740F40000D6
:100DB0004FF00003013A5DDC12F1190FDCBF00F0C7
:100DC00000407047C2F10002410021FA02F1C2F175
:100DD000200200FA02FC5FEA310040F1000053EA11
:100DE0004C0308BF20EADC70704792F0000F00F05F
:100DF000004C02BF400010F4000F013AF9D040EA65
:100E00000C0093F0000F01F0004C02BF490011F4F8
:100E1000000F013BF9D041EA0C018FE70CEAD153F6
:100E200092EA0C0F18BF93EA0C0F0AD030F0004C76
:100E300018BF31F0004CD8D180EA010000F000402A
:100E4000704790F0000F17BF90F0004F084691F0E8
:100E5000000F91F0004F14D092EA0C0F01D1420222
:100E60000FD193EA0C0F03D14B0218BF084608D1EB
:100E700080EA010000F0004040F0FE4040F4000035
:100E8000704740F0FE4040F4400070474FF0FF0CC8
:100E90001CEAD0521EBF1CEAD15392EA0C0F93EA0F
:100EA0000C0F69D0A2EB030280EA010C49024FEA61
:100EB000402037D04FF0805343EA111143EA10131A
:100EC0000CF000408B4238BF5B0042F17D024FF4D2
:100ED000000C8B4224BF5B1A40EA0C00B3EB510FAD
:100EE00024BFA3EB510340EA5C00B3EB910F24BF96
:100EF000A3EB910340EA9C00B3EBD10F24BFA3EB1B
:100F0000D10340EADC001B0118BF5FEA1C1CE0D1E2
:100F1000FD2A3FF650AF8B4240EBC25008BF20F095
:100F2000010070470CF0004C4CEA50207F32C2BFE9
:100F3000D2F1FF0340EAC250704740F400004FF086
:100F40000003013A37E792F0000F00F0004C02BFB7
:100F5000400010F4000F013AF9D040EA0C0093F081
:100F6000000F01F0004C02BF490011F4000F013BDB
:100F7000F9D041EA0C0195E70CEAD15392EA0C0F43
:100F800008D142027FF47DAF93EA0C0F7FF470AF7B
:100F9000084676E793EA0C0F04D14B023FF44CAFBE
:100FA00008466EE730F0004C18BF31F0004CCAD153
:100FB00030F000427FF45CAF31F000437FF43CAF8F
:100FC0005FE700BF4FF0FF3C06E000BF4FF0010CB1
:100FD00002E000BF4FF0010C4DF804CD4FEA400293
:100FE0004FEA41037FEA226C18BF7FEA236C11D0DD
:100FF00001B052EA530C18BF90EA010F58BFB2EB90
:10100000030088BFC81738BF6FEAE17018BF40F00F
:10101000010070477FEA226C02D15FEA402C05D1C3
:101020007FEA236CE4D15FEA412CE1D05DF8040B48
:10103000704700BF844608466146FFE70FB5FFF7DB
:10104000C9FF002848BF10F1000F0FBD4DF808ED93
:10105000FFF7F4FF0CBF012000205DF808FB00BF84
:101060004DF808EDFFF7EAFF34BF012000205DF8DE
:1010700008FB00BF4DF808EDFFF7E0FF94BF01202B
:1010800000205DF808FB00BF4DF808EDFFF7D2FF28
:1010900094BF012000205DF808FB00BF4DF808ED6B
:1010A000FFF7C8FF34BF012000205DF808FB00BF38
:1010B0004FEA40024FEA41037FEA226C02D15FEA25
:1010C000402C08D17FEA236C02D15FEA412C02D187
:1010D0004FF0000070474FF00100704780B483B0BC
:1010E00000AF0023FB712EE0FB791B4A1B01134468
:1010F0000C221A70FB79184A1B01134401330C228D
:101100001A70FB79144A1B01134402330C221A7023
:10111000FB79114A1B01134404334FF000021A609B
:10112000FB790D4A1B01134408334FF000021A608B
:10113000FB79094A1B0113440C334FF000021A607B
:10114000FB790133FB71FB79032BCDD900BF00BFC5
:101150000C37BD4680BC7047A400002080B485B029
:1011600000AF0346FB710B46BB7113467B71002336
:10117000FB7346E0FB7B274A1B0113441B780C2BB7
:101180003BD1FB7B234A1B01134401331B780C2BFF
:1011900033D1FB7B1F4A1B01134402331B780C2BFA
:1011A0002BD1FB7B1B4A1B011344FA791A70FB7B82
:1011B000184A1B0113440133BA791A70FB7B154A94
:1011C0001B01134402337A791A70FB7B114A1B010D
:1011D00013440433104A1A60FB7B0E4A1B0113446C
:1011E00008330E4A1A60FB7B0A4A1B0113440C3376
:1011F0004FF000021A60FB7B07E000BFFB7B01336E
:10120000FB73FB7B032BB5D9042318461437BD466B
:1012100080BC7047A40000200000AA420000B44235
:1012200080B584B000AF78600023FB732EE0FB7BB9
:101230001A4A1B0113441B780C2B06D0FB7B1B01A5
:10124000164A1344184600F02BF8FB7B134A1B0187
:10125000134401331B780C2B06D0FB7B1B010F4A78
:101260001344184600F0C2F8FB7B0C4A1B011344E0
:1012700002331B780C2B06D0FB7B1B01074A13445F
:10128000184600F0F1F8FB7B0133FB73FB7B032B6B
:10129000CDD900BF00BF1037BD4680BDA4000020DF
:1012A00090B587B000AF78607B683B613B691B7885
:1012B0000C2B7ED03B695B681846FFF7ADF84FF00A
:1012C00000024FF08043FFF729FA02460B46104612
:1012D00019464FF000023C4BFEF740FF02460B461A
:1012E00010461946FFF7C0FB03467B613749786912
:1012F000FFF7B6FE0346002B02D0344B7B6108E0BB
:1013000033497869FFF7CAFE0346002B01D0304B02
:101310007B614FF08041786904F0DEFC03462D4983
:101320001846FFF7F7FB03462B491846FFF7F0FB7B
:1013300003461C4629497869FFF7F4FC0346194621
:101340002046FFF7A3FD0346184604F0A5FC03461C
:101350001846FFF761F81AA3D3E90023FFF7DEF977
:1013600002460B46104619464FF000021C4BFFF791
:10137000ABF802460B464FF000001A49FEF7ECFEB0
:1013800002460B4610461946FFF76EFB0346FB600C
:101390003B691B78144A1B0113440C33FA681A602A
:1013A0003B691B781B01104A1344184602F0F0FAFF
:1013B00000E000BF1C37BD4690BD00BFAFF300800A
:1013C000182D4454FB2109400000F83F0000D04193
:1013D0000000304200006143000061440000F04121
:1013E00000806640008056401008002080B586B01E
:1013F00000AF78607B683B613B695B780C2B2AD03F
:101400003B699B687B614FF000017869FFF728FE1C
:101410000346002B03D04FF000037B6108E0104926
:101420007869FFF73BFE0346002B01D00C4B7B6134
:101430007B69FB603B695B780A4A1B0113440C33F0
:10144000FA681A603B695B781B01064A1344184628
:1014500002F09EFA00E000BF1837BD4680BD00BF15
:101460000000344310080020B0B586B000AF7860AB
:101470007B683B613B699B780C2B00F09D803B694E
:10148000DB687B614FF000017869FFF7E9FD0346F7
:10149000002B03D04FF000037B6108E04A497869D4
:1014A000FFF7FCFD0346002B01D0474B7B614FF05B
:1014B0008041786904F010FC034644491846FFF760
:1014C00029FB034642491846FFF7E0FC0346FB6050
:1014D0004FF08041786904F0FFFB03463D49184610
:1014E000FFF718FB03461846FEF796FF04460D4625
:1014F000F868FEF791FF4FF000024FF0804304F0D0
:1015000063FB02460B4620462946FEF725FE0246AF
:101510000B4610461946FFF7A7FA0346184604F093
:1015200028FC03462C491846FFF7F4FA03461C46EC
:10153000F9687869FFF7EEFA034619462046FFF787
:10154000A5FC0346184604F02FFC0346194618462E
:10155000FFF7E0FA03461846FEF75EFF18A3D3E94B
:101560000023FFF7DBF802460B46104619464FF002
:1015700000021A4BFEF7A8FF02460B464FF0000090
:101580001649FEF7E9FD02460B4610461946FFF7DD
:101590006BFA0346BB603B699B78114A1B011344FD
:1015A0000C33BA681A603B699B781B010C4A1344E0
:1015B000184602F0EDF900E000BF1837BD46B0BD97
:1015C000182D4454FB2109400000C841000061432C
:1015D0000000F0410000C8430000A04100806640C8
:1015E0001008002080B584B000AF78607B68FB6095
:1015F000FB68044A5A60F868FFF752FE00BF1037D4
:10160000BD4680BD0000604280B584B000AF786008
:101610007B68FB60FB68044A5A60F868FFF740FE8D
:1016200000BF1037BD4680BD0000864280B584B043
:1016300000AF78607B68FB60FB68044A9A60F868DA
:10164000FFF7D4FE00BF1037BD4680BD0000344315
:1016500080B584B000AF78607B68FB60FB68044AAB
:101660009A60F868FFF7C2FE00BF1037BD4680BD24
:101670000000B44280B584B000AF78607B68FB6046
:10168000FB684FF000029A60F868FFF7AFFE00BFFA
:101690001037BD4680BD80B584B000AF78607B68F0
:1016A000FB60FB684FF08342DA60F868FFF7DCFE0E
:1016B00000BF1037BD4680BD80B584B000AF7860F4
:1016C0007B68FB60FB684FF00002DA60F868FFF7A8
:1016D000CBFE00BF1037BD4680BD80B584B000AFE3
:1016E00078607B68FB60FB684FF08242DA60F868E4
:1016F000FFF7BAFE00BF1037BD4680BD80B500AF12
:1017000002F0C6FB00F05EF800F0B2FA00F09AF8C2
:1017100000F0E8F800F07CF900F012FA234803F03A
:101720000BFB0021224803F0B1FB0421204803F009
:10173000ADFB08211E4803F0A9FB0C211C4803F057
:10174000A5FB00211B4803F0A1FB0421194803F06D
:101750009DFB0821174803F099FB0C21154803F065
:1017600095FB0021144803F091FB0421124803F07B
:101770008DFB0821104803F089FB0C210E4803F073
:1017800085FB01F02BFA00F0EBFA00234FF47A729C
:1017900000210A4801F0C0FA002347F2305200212C
:1017A000074801F0B9FA01F099FAFCE7E4000020DB
:1017B0002C01002074010020BC010020D91E00086B
:1017C0004933000880B590B000AF07F11803282214
:1017D0000021184604F0C6F93B1D00221A605A6029
:1017E0009A60DA601A610223BB610123BB62102395
:1017F000FB6202237B630023BB630023FB6307F1CF
:101800001803184602F06AFE0346002B01D000F0D0
:101810007FFA0F237B600223BB600023FB604FF441
:1018200080633B6100237B613B1D0021184603F070
:10183000D7F80346002B01D000F06AFA00BF40370A
:10184000BD4680BD80B586B000AF07F10803002219
:101850001A605A609A60DA603B4600221A605A6049
:101860001E4B1F4A1A601D4B00225A601B4B002260
:101870009A601A4B41F63F72DA60184B00221A61E7
:10188000164B00225A61154B00229A61134803F04F
:1018900003FA0346002B01D000F03AFA4FF48053CC
:1018A000BB6007F1080319460C4803F05BFD0346D3
:1018B000002B01D000F02CFA00233B6000237B605A
:1018C0003B461946054804F0DDF80346002B01D0DD
:1018D00000F01EFA00BF1837BD4680BDE4000020AE
:1018E000002C014080B58EB000AF07F12803002224
:1018F0001A605A609A60DA6007F1200300221A60C9
:101900005A603B1D00221A605A609A60DA601A61C0
:101910005A619A613D4B4FF080421A603B4B032263
:101920005A603A4B00229A60384B49F63F42DA60DF
:10193000364B00221A61354B00229A61334803F07E
:10194000ABF90346002B01D000F0E2F94FF48053CD
:10195000BB6207F1280319462C4803F003FD034638
:10196000002B01D000F0D4F9284803F037FA0346E1
:10197000002B01D000F0CCF900233B6200237B62F6
:1019800007F120031946214804F07CF80346002B98
:1019900001D000F0BDF960237B600023BB60002311
:1019A000FB6000237B613B1D00221946174803F0B2
:1019B00017FC0346002B01D000F0AAF93B1D0422BE
:1019C0001946124803F00CFC0346002B01D000F02E
:1019D0009FF93B1D082219460C4803F001FC034601
:1019E000002B01D000F094F93B1D0C22194607484A
:1019F00003F0F6FB0346002B01D000F089F9034801
:101A000002F020F900BF3837BD4680BD2C01002010
:101A100080B58EB000AF07F1280300221A605A602B
:101A20009A60DA6007F1200300221A605A603B1DB9
:101A300000221A605A609A60DA601A615A619A61EB
:101A40003D4B3E4A1A603C4B03225A603A4B0022FF
:101A50009A60394B49F63F42DA60374B00221A61EF
:101A6000354B00229A61344803F016F90346002BE7
:101A700001D000F04DF94FF48053BB6207F1280309
:101A800019462D4803F06EFC0346002B01D000F0F0
:101A90003FF9294803F0A2F90346002B01D000F0DA
:101AA00037F900233B6200237B6207F120031946CC
:101AB000214803F0E7FF0346002B01D000F028F98E
:101AC00060237B600023BB600023FB6000237B61FD
:101AD0003B1D00221946184803F082FB0346002BE9
:101AE00001D000F015F93B1D04221946124803F0FD
:101AF00077FB0346002B01D000F00AF93B1D0822BA
:101B000019460D4803F06CFB0346002B01D000F092
:101B1000FFF83B1D0C221946074803F061FB034602
:101B2000002B01D000F0F4F8034802F08BF800BF5E
:101B30003837BD4680BD00BF74010020000400405E
:101B400080B58EB000AF07F1280300221A605A60FA
:101B50009A60DA6007F1200300221A605A603B1D88
:101B600000221A605A609A60DA601A615A619A61BA
:101B70003D4B3E4A1A603C4B03225A603A4B0022CE
:101B80009A60394B49F63F42DA60374B00221A61BE
:101B9000354B00229A61344803F07EF80346002B4F
:101BA00001D000F0B5F84FF48053BB6207F1280371
:101BB00019462D4803F0D6FB0346002B01D000F058
:101BC000A7F8294803F00AF90346002B01D000F0DA
:101BD0009FF800233B6200237B6207F12003194634
:101BE000214803F04FFF0346002B01D000F090F88E
:101BF00060237B600023BB600023FB6000237B61CC
:101C00003B1D00221946184803F0EAFA0346002B50
:101C100001D000F07DF83B1D04221946124803F064
:101C2000DFFA0346002B01D000F072F83B1D0822BA
:101C300019460D4803F0D4FA0346002B01D000F0FA
:101C400067F83B1D0C221946074803F0C9FA034602
:101C5000002B01D000F05CF8034801F0F3FF00BF57
:101C60003837BD4680BD00BFBC01002000080040E1
:101C700080B586B000AF07F1080300221A605A60F1
:101C80009A60DA60174B9B69164A43F0040393612C
:101C9000144B9B6903F004037B607B68114B9B69C9
:101CA000104A43F0080393610E4B9B6903F008034D
:101CB0003B603B68002220210B4802F0DDFB202323
:101CC000BB600123FB6000233B6102237B6107F1C2
:101CD00008031946044802F04BFA00BF1837BD4606
:101CE00080BD00BF001002400008014080B582B0F6
:101CF00000AF78607B681B68044A934201D100F012
:101D0000C7FF00BF0837BD4680BD00BF002C0140A3
:101D100080B400AF72B600BFFEE7000080B483B0AD
:101D200000AF78600B4B01221A700B4B04221A7023
:101D30000A4B04221A70094B04225A70074B0422E2
:101D40009A70064B0422DA7000BF0C37BD4680BC87
:101D5000704700BF04020020080200200C0200208F
:101D600080B584B000AF4F4B00221A704E4B042256
:101D70001A704E4B04221A704C4B04225A704B4B73
:101D800004229A70494B0422DA7001F06FFDFFF7CC
:101D9000A5F94FF000020021454801F099FD0346E6
:101DA000FB734FF000020421414801F091FD03460E
:101DB000BB73404A08213E4801F08AFD03467B730D
:101DC0004FF000020C213A4801F082FD03463B73BC
:101DD000384A0021384801F07BFD0346FB724FF082
:101DE00000020421344801F073FD0346BB72334AFC
:101DF0000821314801F06CFD03467B724FF08042B0
:101E00000C212D4801F064FD03463B724FF00002A7
:101E100000212B4801F05CFD0346FB714FF00002EE
:101E20000421274801F054FD0346BB714FF0000226
:101E30000821234801F04CFD03467B71214A0C2107
:101E40001F4801F045FD03463B71FA79F97AFB7BA7
:101E50001846FFF783F903461A461B4B1A70BA79E6
:101E6000B97ABB7B1846FFF779F903461A46174B38
:101E70001A707A79797A7B7B1846FFF76FF90346F7
:101E80001A46134B1A703A79397A3B7B1846FFF79A
:101E900065F903461A460F4B1A7000BF1037BD464E
:101EA00080BD00BF04020020080200200C020020B8
:101EB0002C0100200000A0C074010020000080C0A0
:101EC000BC01002000002041000000200100002093
:101ED000020000200300002080B582B000AF7860CF
:101EE000002340F6B7320021384800F015FF384B88
:101EF0001B781B01374A9918002341F26E7236484D
:101F000000F00AFF324B1B781B01324A991800235C
:101F100042F22532314800F0FFFE2D4B1B781B01A9
:101F20002C4A9918002342F6DC622D4800F0F4FE9A
:101F30002C4B1B781B01274A9918002343F6932248
:101F4000274800F0E9FE284B1B781B01214A99180D
:101F5000002344F24A62224800F0DEFE234B1B7845
:101F60001B011C4A9918002344F24A621C4800F0E5
:101F7000D3FE1C4B1B781B01164A9918002345F20F
:101F80000122164800F0C8FE174B1B781B01114AAE
:101F90009918002345F20122104800F0BDFE134BB2
:101FA0001B781B010B4A9918002345F201220B48AC
:101FB00000F0B2FE002345F6B85200210C4800F0B4
:101FC000ABFE00BF0837BD4680BD00BF2112000830
:101FD00002000020A400002009160008E5150008F2
:101FE00097160008000000200100002003000020D8
:101FF0001D1D000880B582B000AF7860204B1B78B3
:102000001B01204A9918002300221F4800F084FE7B
:102010001B4B1B781B011B4A9918002340F2F3123B
:102020001A4800F079FE164B1B781B01154A9918C7
:10203000002340F2E632164800F06EFE104B1B788B
:102040001B01104A9918002340F2D952114800F0A0
:1020500063FE0B4B1B781B010A4A9918002340F2C0
:10206000CC720D4800F058FE002340F6BF1200214C
:102070000A4800F051FE00BF0837BD4680BD00BFD2
:1020800008020020A400002009160008B916000864
:102090005116000897160008E51500081D1D0008D8
:1020A00080B582B000AF78601A4B1B781B011A4ACA
:1020B000991800230022194800F02EFE154B1B78BA
:1020C0001B01154A9918002340F2F312144800F03E
:1020D00023FE104B1B781B010F4A9918002340F276
:1020E000E632104800F018FE0A4B1B781B010A4A22
:1020F0009918002340F2D9520B4800F00DFE00233E
:1021000040F2CC720021094800F006FE00BF0837FB
:10211000BD4680BD08020020A4000020091600086A
:10212000DB160008E51500082D160008F51F00084D
:1021300080B582B000AF78601A4B1B781B011A4A39
:10214000991800230022194800F0E6FD154B1B7872
:102150001B01154A9918002340F2F312144800F0AD
:10216000DBFD104B1B781B010F4A9918002340F22E
:10217000E632104800F0D0FD0A4B1B781B010A4ADA
:102180009918002340F2D9520B4800F0C5FD0023F6
:1021900040F2CC720021094800F0BEFD00BF0837B4
:1021A000BD4680BD08020020A400002009160008DA
:1021B000DB160008E515000875160008F51F000875
:1021C00080B582B000AF7860254B1B781B01254A93
:1021D000991800230022244800F09EFD204B1B7814
:1021E0001B01204A9918002340F2F3121F4800F007
:1021F00093FD1B4B1B781B011A4A9918002340F2D0
:10220000E6321B4800F088FD154B1B781B01154A70
:102210009918002340F2D952164800F07DFD104B6A
:102220001B781B010F4A9918002340F2CC72124808
:1022300000F072FD0A4B1B781B010A4A9918002313
:1022400040F6BF120D4800F067FD002340F6B232A1
:1022500000210B4800F060FD00BF0837BD4680BD7F
:1022600008020020A400002009160008B916000882
:102270002D160008DB160008E51500087516000885
:10228000F51F000880B582B000AF7860094B1B785D
:10229000012B0AD1074B02221A70074B1A78074B01
:1022A0001A700020FFF7FCFE00E000BF0837BD46B3
:1022B00080BD00BF040200200000002008020020B2
:1022C00080B582B000AF7860094B1B78012B0AD132
:1022D000074B02221A70074B1A78074B1A7000201E
:1022E000FFF726FF00E000BF0837BD4680BD00BFF6
:1022F00004020020000000200802002080B582B007
:1023000000AF7860094B1B78012B0AD1074B0222E2
:102310001A70074B1A78074B1A700020FFF750FF0E
:1023200000E000BF0837BD4680BD00BF04020020AA
:10233000000000200802002080B582B000AF786065
:10234000094B1B78012B0AD1074B02221A70074B4D
:102350001A78074B1A700020FFF7A2FE00E000BFBA
:102360000837BD4680BD00BF0402002001000020E8
:102370000802002080B582B000AF7860094B1B785E
:10238000012B0AD1074B02221A70074B1A78074B10
:102390001A700020FFF7CCFE00E000BF0837BD46F2
:1023A00080BD00BF040200200100002008020020C0
:1023B00080B582B000AF7860094B1B78012B0AD141
:1023C000074B02221A70074B1A78074B1A7000202D
:1023D000FFF7F6FE00E000BF0837BD4680BD00BF36
:1023E00004020020010000200802002080B582B015
:1023F00000AF7860094B1B78012B0AD1074B0222F2
:102400001A70074B1A78074B1A700020FFF748FE26
:1024100000E000BF0837BD4680BD00BF04020020B9
:10242000020000200802002080B582B000AF786072
:10243000094B1B78012B0AD1074B02221A70074B5C
:102440001A78074B1A700020FFF772FE00E000BFF9
:102450000837BD4680BD00BF0402002002000020F6
:102460000802002080B582B000AF7860094B1B786D
:10247000012B0AD1074B02221A70074B1A78074B1F
:102480001A700020FFF79CFE00E000BF0837BD4631
:1024900080BD00BF040200200200002008020020CE
:1024A00080B582B000AF7860094B1B78012B0AD150
:1024B000074B02221A70074B1A78074B1A7000203C
:1024C000FFF7EEFD00E000BF0837BD4680BD00BF4E
:1024D00004020020030000200802002080B582B022
:1024E00000AF7860094B1B78012B0AD1074B022201
:1024F0001A70074B1A78074B1A700020FFF718FE66
:1025000000E000BF0837BD4680BD00BF04020020C8
:10251000030000200802002080B582B000AF786080
:10252000094B1B78012B0AD1074B02221A70074B6B
:102530001A78074B1A700020FFF742FE00E000BF38
:102540000837BD4680BD00BF040200200300002004
:102550000802002080B582B000AF78603B4B1B784A
:102560001B013B4A9918002300223A4800F0D4FB93
:10257000364B5B781B01364A9918002300223548F8
:1025800000F0CAFB314B1B781B01314A991800231C
:1025900040F2F312304800F0BFFB2C4B5B781B017C
:1025A0002B4A9918002340F2F3122B4800F0B4FB99
:1025B000264B1B781B01264A9918002340F2E6326D
:1025C000264800F0A9FB214B5B781B01204A991893
:1025D000002340F2E632214800F09EFB1B4B1B78A3
:1025E0001B011B4A9918002340F2D9521C4800F0E5
:1025F00093FB164B5B781B01154A9918002340F298
:10260000D952174800F088FB104B1B781B01104A69
:102610009918002340F2CC72124800F07DFB0B4B5E
:102620005B781B010A4A9918002340F2CC720D48CE
:1026300000F072FB002340F6BF1200210A4800F0B0
:102640006BFB00BF0837BD4680BD00BF0C020020F9
:10265000A400002009160008B91600085116000849
:1026600097160008E51500081D1D000880B582B00A
:1026700000AF78603B4B9B781B013B4A99180023C5
:1026800000223A4800F048FB364BDB781B01364A03
:10269000991800230022354800F03EFB314B9B780F
:1026A0001B01314A9918002340F2F312304800F020
:1026B00033FB2C4BDB781B012B4A9918002340F28B
:1026C000F3122B4800F028FB264B1B781B01264AEF
:1026D0009918002340F2E632264800F01DFB214BFA
:1026E0005B781B01204A9918002340F2E632224809
:1026F00000F012FB1B4B9B781B011B4A991800230F
:1027000040F2D9521D4800F007FB164BDB781B0145
:10271000154A9918002340F2D952184800F0FCFAE3
:10272000104B9B781B01104A9918002340F2CC7281
:10273000134800F0F1FA0B4BDB781B010A4A991899
:10274000002340F2CC720E4800F0E6FA002340F677
:10275000BF1200210B4800F0DFFA00BF0837BD466A
:1027600080BD00BF0C020020A40000200916000854
:10277000B9160008751600082D16000897160008EF
:10278000E51500085525000880B582B000AF7860D7
:10279000724B1B781B01724A991800230022714862
:1027A00000F0BAFA6D4B5B781B016D4A9918002353
:1027B00000226C4800F0B0FA684B1B781B01684A95
:1027C0009918002340F2F312674800F0A5FA634B12
:1027D0005B781B01624A9918002340F2F3126248A9
:1027E00000F09AFA5D4B1B781B015D4A9918002393
:1027F00040F2E6325D4800F08FFA584B5B781B01DF
:10280000574A9918002340F2E632594800F084FAFA
:10281000524B1B781B01524A9918002340F2D9529F
:10282000544800F079FA4D4B5B781B014C4A9918DB
:10283000002340F2D9524F4800F06EFA474B1B7804
:102840001B01474A9918002340F2CC724A4800F015
:1028500063FA424B5B781B01414A9918002340F20E
:10286000CC72454800F058FA3C4B9B781B013C4A1F
:102870009918002340F6BF123A4800F04DFA374B42
:10288000DB781B01364A9918002340F6BF12354801
:1028900000F042FA314B9B781B01314A9918002312
:1028A00040F6B232304800F037FA2C4BDB781B018F
:1028B0002B4A9918002340F6B2322B4800F02CFA2C
:1028C000264B1B781B01264A9918002340F6A55277
:1028D000274800F021FA214B5B781B01204A991808
:1028E000002340F6A552214800F016FA1B4B9B78B6
:1028F0001B011B4A9918002340F698721D4800F0EE
:102900000BFA164BDB781B01154A9918002340F689
:102910009872184800F000FA104B9B781B01104A7F
:102920009918002341F28B12134800F0F5F90B4B74
:10293000DB781B010A4A9918002341F28B120E48DA
:1029400000F0EAF9002341F27E3200210B4800F04A
:10295000E3F900BF0837BD4680BD00BF0C02002070
:10296000A400002009160008B91600082D1600085A
:102970007516000897160008E5150008552500088B
:1029800080B582B000AF78600F4B1B78012B16D159
:102990000D4B02221A700D4B1A780D4B1A700D4B0D
:1029A0001A780B4B5A700C4B1A78094B9A700B4BD8
:1029B0001A78074BDA700020FFF758FE00E000BFDE
:1029C0000837BD4680BD00BF040200200200002081
:1029D0000C02002000000020010000200300002065
:1029E00080B582B000AF78600F4B1B78012B16D1F9
:1029F0000D4B02221A700D4B1A780D4B1A700D4BAD
:102A00001A780B4B5A700C4B1A78094B9A700B4B77
:102A10001A78074BDA700020FFF728FE00E000BFAD
:102A20000837BD4680BD00BF040200200000002022
:102A30000C02002002000020010000200300002002
:102A400080B582B000AF78600F4B1B78012B16D198
:102A50000D4B02221A700D4B1A780D4B1A700D4B4C
:102A60001A780B4B5A700C4B1A78094B9A700B4B17
:102A70001A78074BDA700020FFF786FE00E000BFEF
:102A80000837BD4680BD00BF0402002002000020C0
:102A90000C020020000000200100002003000020A4
:102AA00080B582B000AF78600F4B1B78012B16D138
:102AB0000D4B02221A700D4B1A780D4B1A700D4BEC
:102AC0001A780B4B5A700C4B1A78094B9A700B4BB7
:102AD0001A78074BDA700020FFF7C8FD00E000BF4E
:102AE0000837BD4680BD00BF040200200100002061
:102AF0000C02002003000020000000200200002043
:102B000080B582B000AF78600F4B1B78012B16D1D7
:102B10000D4B02221A700D4B1A780D4B1A700D4B8B
:102B20001A780B4B5A700C4B1A78094B9A700B4B56
:102B30001A78074BDA700020FFF798FD00E000BF1D
:102B40000837BD4680BD00BF0402002003000020FE
:102B50000C020020010000200000002002000020E4
:102B600080B582B000AF78600F4B1B78012B16D177
:102B70000D4B02221A700D4B1A780D4B1A700D4B2B
:102B80001A780B4B5A700C4B1A78094B9A700B4BF6
:102B90001A78074BDA700020FFF7F6FD00E000BF5F
:102BA0000837BD4680BD00BF0402002001000020A0
:102BB0000C02002003000020000000200200002082
:102BC00080B582B000AF78602021034801F06CFC32
:102BD00000BF0837BD4680BD0008014080B582B007
:102BE00000AF0023FB7141E0FA79274913465B00EF
:102BF0001344DB000B4400221A60FA792249134681
:102C00005B001344DB000B44043300221A60FA79A2
:102C1000FB79C3F14003D8B21B4913465B00134450
:102C2000DB000B44083302461A70FA791649134642
:102C30005B001344DB000B440C3300221A60FA796A
:102C4000114913465B001344DB000B441033002290
:102C50001A60FA790C4913465B001344DB000B44FD
:102C6000143300221A70FB790133FB71FB793F2B7F
:102C7000BAD94FF47A7300220021044800F04CF8CE
:102C800000BF0837BD4680BD10020020C12B0008E0
:102C900080B400AF104B1B68002B18D00E4BDB68C4
:102CA000002B0CD00C4BDB68012B05D90A4BDB68E1
:102CB000013B094AD36002E0074B0022DA60064B71
:102CC000DB68002B04D1044B01221A7500E000BF21
:102CD000BD4680BC704700BF1002002080B500AF29
:102CE0000C4B1B7D002B12D00A4B1B68094A526803
:102CF00010469847074B1B69002B02D000F0BCF927
:102D000006E0044B1B7A184600F01AF900E000BFF9
:102D100080BD00BF10020020B0B489B000AFF860E1
:102D2000B9607A603B60854BD3F8E835002B01D061
:102D30000023FDE0814B93F8F0357B760023FB61A7
:102D40000023FB76EFE0FA7E7C4913465B001344D8
:102D5000DB000B440C331B68FA691344FB61FA690E
:102D60007B689A420AD8FA7E744913465B00134482
:102D7000DB000B441B68002B40F0D2803F23BB7666
:102D800019E0BB7E5A1EB97E6C480B465B000B44B3
:102D9000DB001844694913465B001344DB000B4415
:102DA00004461D460FCD0FC495E8030084E80300D8
:102DB000BB7E013BBB76BA7EFB7E9A42E1D8FA7EAF
:102DC0005E4913465B001344DB000B44FA681A604B
:102DD000FA7E5A4913465B001344DB000B4404336C
:102DE000BA681A60FA7E554913465B001344DB004B
:102DF0000B4408337A7E1A70FA7E504913465B0002
:102E00001344DB000B4410333A681A60FA7E4B49D6
:102E100013465B001344DB000B44143300221A708A
:102E2000FA697B689A4250D9FA697B68D31A7B6148
:102E3000FB7E5A1C414913465B001344DB000B44E4
:102E40000C3319687B69FA7EC91A3C4813465B004B
:102E50001344DB0003440C331960FA7E37491346F0
:102E60005B001344DB000B440C331B68002B09D1BF
:102E7000FA7E324913465B001344DB000B441433E3
:102E800001221A70FB7E5A1C79692C4813465B009C
:102E90001344DB0003440C331960FB7E5A1C2749A2
:102EA00013465B001344DB000B440C331B68002B00
:102EB0002CD1FB7E5A1C214913465B001344DB00D6
:102EC0000B44143301221A7020E0FA7E7968FB6902
:102ED000C91A1A4813465B001344DB0003440C3341
:102EE0001960FA7E154913465B001344DB000B445E
:102EF0000C331B68002B09D1FA7E104913465B0086
:102F00001344DB000B44143301221A70FA7E0B4980
:102F100013465B001344DB000B4408331B7807E0C7
:102F2000FB7E0133FB76FB7E3F2B7FF60CAF00234D
:102F300018462437BD46B0BC704700BF10020020C1
:102F4000B0B485B000AF0346FB710023FB7387E08C
:102F5000FA7B484913465B001344DB000B441B68B3
:102F6000002B01D1002380E0FA7B424913465B002D
:102F70001344DB000B4408331B78FA799A426CD176
:102F8000FA7B3C4913465B001344DB000B440833D7
:102F90001B787B73FB7B5A1C364913465B0013443A
:102FA000DB000B441B68002B1DD0FB7B5A1C3149F6
:102FB00013465B001344DB000B440C331968FA7BA7
:102FC0002C4813465B001344DB0003440C331B689E
:102FD000FA7B01321944274813465B001344DB0097
:102FE00003440C331960FB7BBB7319E0BB7B5A1C99
:102FF000B97B20480B465B000B44DB0018441D499D
:1030000013465B001344DB000B4404461D460FCD02
:103010000FC495E8030084E80300BB7B0133BB7356
:10302000BB7B3E2BE2D9134B0022C3F8E825114BA2
:103030000022C3F8EC250F4A7B7B82F8F0350D4B5C
:103040000022C3F8F4250B4B0022C3F8F825094BE6
:10305000002283F8FC25012307E0FB7B0133FB738F
:10306000FB7B3F2B7FF674AF002318461437BD4619
:10307000B0BC704710020020B0B48BB000AFB14BB1
:103080001B68002B01D1002357E1AE4B3C1D1D46B0
:103090000FCD0FC495E8030084E8030000237B6292
:1030A000002387F8233042E197F823303F2B0BD0E1
:1030B00097F823305A1CA34913465B001344DB00E6
:1030C0000B441B68002B5CD197F8232079689D483E
:1030D00013465B001344DB000344196097F8232078
:1030E000B968984813465B001344DB00034404337B
:1030F000196097F82320387B924913465B001344EC
:10310000DB000B44083302461A7097F823207969D4
:103110008C4813465B001344DB00034410331960F2
:1031200097F82320874913465B001344DB000B44C8
:10313000143300221A70796997F823207B6AC91A20
:10314000804813465B001344DB0003440C331960D2
:1031500097F823207B4913465B001344DB000B44A4
:103160000C331B68002B0AD197F8232075491346AE
:103170005B001344DB000B44143301221A7001235B
:10318000DBE097F823305A1C6E4913465B0013446A
:10319000DB000B440C331B687A6A13447B627B6947
:1031A0007A6A9A4240F2A58097F8232079686548A8
:1031B00013465B001344DB000344196097F8232097
:1031C000B968604813465B001344DB0003440433D2
:1031D000196097F82320387B5A4913465B00134443
:1031E000DB000B44083302461A7097F823207969F4
:1031F000544813465B001344DB000344103319604A
:1032000097F823204F4913465B001344DB000B441F
:10321000143300221A707B697A6AD31AFB6197F81B
:1032200023305A1C474913465B001344DB000B4410
:103230000C331968FB6997F82320C91A41481346D3
:103240005B001344DB0003440C33196097F8232020
:103250003C4913465B001344DB000B440C331B68F2
:10326000002B0AD197F82320364913465B001344FC
:10327000DB000B44143301221A7097F823305A1CD8
:10328000304913465B001344DB000B440C331968D0
:1032900097F823202B4813465B001344DB000344BC
:1032A0000C331B6897F823200132C91A25481346AE
:1032B0005B001344DB0003440C33196097F82330A0
:1032C0005A1C204913465B001344DB000B440C33AB
:1032D0001B68002B0BD197F823305A1C1949134651
:1032E0005B001344DB000B44143301221A700123EA
:1032F00023E097F823305A1C97F8231011480B4607
:103300005B000B44DB0018440E4913465B0013447A
:10331000DB000B4404461D460FCD0FC495E80300A7
:1033200084E8030097F82330013387F8233097F8B7
:1033300023303F2B7FF6B8AE002318462C37BD460E
:10334000B0BC70471002002080B584B000AF786038
:103350004FF47A73FB600023FB726BE2FB7ABC4A8A
:10336000D35C1A2B00F2628201A252F823F000BF54
:10337000DD3300082134000865340008A934000852
:10338000C1340008D9340008F134000809350008B8
:103390002135000839350008513500086935000825
:1033A0008135000899350008B1350008C935000895
:1033B0000D3600088D360008D1360008E9360008C1
:1033C00001370008193700085D370008A1370008E9
:1033D000E5370008FD370008153800080023FA68B3
:1033E00000219C48FFF798FCFB6803F5AB531133B1
:1033F000FB600023FA6800219748FFF78DFCFB680B
:1034000003F59B531E33FB600023FA6800219348A9
:10341000FFF782FCFB6803F5AB531133FB6006E258
:103420000023FA6800218B48FFF776FCFB6803F560
:10343000AB531133FB600023FA6800218848FFF783
:103440006BFCFB6803F59B531E33FB600023FA689B
:1034500000218248FFF760FCFB6803F5AB53113392
:10346000FB60E4E10023FA6800217A48FFF754FC8E
:10347000FB6803F5AB531133FB600023FA680021AE
:103480007848FFF749FCFB6803F5BB530433FB6046
:103490000023FA6800217148FFF73EFCFB6803F542
:1034A000AB531133FB60C2E10023FA6800216E4880
:1034B000FFF732FCFB6803F59B531E33FB60B6E15C
:1034C0000023FA6800216948FFF726FCFB6803F532
:1034D0009B531E33FB60AAE10023FA680021644875
:1034E000FFF71AFCFB6803F5BB530433FB609EE156
:1034F0000023FA6800215848FFF70EFCFB6803F52B
:103500009B531E33FB6092E10023FA68002154486C
:10351000FFF702FCFB6803F59B531E33FB6086E15B
:103520000023FA6800214F48FFF7F6FBFB6803F51C
:10353000BB530433FB607AE10023FA6800214D4855
:10354000FFF7EAFBFB6803F59B531E33FB606EE15C
:103550000023FA6800214848FFF7DEFBFB6803F50B
:103560009B531E33FB6062E10023FA68002143484D
:10357000FFF7D2FBFB6803F5BB530433FB6056E156
:103580000023FA6800213E48FFF7C6FBFB6803F5FD
:103590009B531E33FB604AE10023FA68002139483F
:1035A000FFF7BAFBFB6803F59B531E33FB603EE15C
:1035B0000023FA6800213448FFF7AEFBFB6803F5EF
:1035C000BB530433FB6032E10023FA680021234837
:1035D000FFF7A2FBFB6803F5AB531133FB6000233D
:1035E000FA6800211C48FFF797FBFB6803F59B5323
:1035F0001E33FB600023FA6800211648FFF78CFB9E
:10360000FB6803F5AB531133FB6010E10023FA684C
:1036100000211248FFF780FBFB6803F5AB53113321
:10362000FB600023FA6800210D48FFF775FBFB687B
:1036300003F59B531E33FB600023FA680021054805
:10364000FFF76AFBFB6803F5AB531133FB60EEE059
:10365000080000208129000839230008E12900081A
:1036600075230008B123000885220008C122000844
:10367000FD220008ED230008292400086524000825
:10368000A1240008DD240008192500080023FA6899
:1036900000216E48FFF740FBFB6803F5AB53113385
:1036A000FB600023FA6800216948FFF735FBFB68DF
:1036B00003F5BB530433FB600023FA68002165481F
:1036C000FFF72AFBFB6803F5AB531133FB60AEE059
:1036D0000023FA6800215F48FFF71EFBFB6803F533
:1036E000AB531133FB60A2E00023FA680021574876
:1036F000FFF712FBFB6803F5AB531133FB6096E059
:103700000023FA6800215448FFF706FBFB6803F525
:10371000F9531033FB608AE00023FA6800214D481A
:10372000FFF7FAFAFB6803F5AB531133FB60002394
:10373000FA6800214948FFF7EFFAFB6803F5AB533D
:103740001133FB600023FA6800214048FFF7E4FAD8
:10375000FB6803F5AB531133FB6068E00023FA68A4
:1037600000213C48FFF7D8FAFB6803F5AB5311334F
:10377000FB600023FA6800213948FFF7CDFAFB68A7
:1037800003F5AB531133FB600023FA6800212F4887
:10379000FFF7C2FAFB6803F5AB531133FB6046E059
:1037A0000023FA6800212B48FFF7B6FAFB6803F5FF
:1037B000AB531133FB600023FA6800212948FFF75F
:1037C000ABFAFB6803F5F9531033FB600023FA688A
:1037D00000211E48FFF7A0FAFB6803F5AB53113335
:1037E000FB6024E00023FA6800211C48FFF794FAEC
:1037F000FB6803F5AB531133FB6018E00023FA6854
:1038000000211748FFF788FAFB6803F5AB53113323
:10381000FB600CE00023FA6800211248FFF77CFAF5
:10382000FB6803F5F9531033FB6000E000BFFB7A3F
:103830000133FB720C4B1B78FA7A9A42FFF48EAD7F
:1038400000BF00BF1037BD4680BD00BFE1290008A2
:10385000B123000881290008412A0008A12A000894
:10386000012B0008612B00080400002080B483B005
:1038700000AF0023FB711FE0FB79144A1B011344C6
:1038800000221A60FB79114A1B0113440433002201
:103890001A60FB790D4A1B01134408334FF00002F4
:1038A0001A60FB79094A1B0113440C334FF00002E4
:1038B0001A60FB790133FB71FB790B2BDCD900BF5C
:1038C00000BF0C37BD4680BC704700BF1008002009
:1038D00080B586B000AFF860B9607A600023FB75F0
:1038E00045E0FB7D264A1B0113441B68002B3AD19F
:1038F000FB7D234A1B011344FA681A60FB7D204AB2
:103900001B0113440433BA681A601E497868FDF736
:10391000A7FB0346002B07D0FB7D194A1B0113446C
:103920000833184A1A6015E017497868FDF7B6FBA6
:103930000346002B07D0FB7D114A1B0113440833BB
:10394000114A1A6006E0FB7D0D4A1B01134408333F
:103950007A681A60FB7D0A4A1B0113440C330B4A38
:103960001A60FB7D07E000BFFB7D0133FB75FB7D2B
:103970000B2BB6D90C2318461837BD4680BD00BFA7
:1039800010080020000058C1000058410000B44257
:10399000B0B584B000AF78607B68FB60FB681B68E3
:1039A000002B7CD0FB68DB684FF000011846FDF768
:1039B00057FB0346002B04D0FB684FF00002DA608F
:1039C0000BE0FB68DB683A491846FDF767FB0346E6
:1039D000002B02D0FB68364ADA60FB681B681B6864
:1039E000DB6A01331846FCF7F5FC2FA3D3E900236B
:1039F000FCF794FE02460B4614461D46FB68DA6847
:103A0000FB689B6819461046FDF784F80346294970
:103A10001846FDF787F903461846FCF7FDFC4FF002
:103A20000002254BFCF77AFE02460B46104619466B
:103A30004FF00002214BFCF791FB02460B4620465B
:103A40002946FCF741FD02460B4610461946FCF795
:103A5000EBFF0346BB60FB685B68002B05D1FB688E
:103A60001B681B68BA685A631AE0FB685B68042B22
:103A700005D1FB681B681A68BB68936310E0FB689C
:103A80005B68082B05D1FB681B681A68BB68D363A9
:103A900006E0FB681B681A68BB68136400E000BF9F
:103AA0001037BD46B0BD00BF000000000088D34005
:103AB000000034430000FA440080664000407F402C
:103AC00080B485B000AF154B9B69144A43F00103E5
:103AD0009361124B9B6903F00103BB60BB680F4B02
:103AE000DB690E4A43F08053D3610C4BDB6903F072
:103AF00080537B607B680A4B5B68FB60FB6823F04C
:103B0000E063FB60FB6843F00073FB60044AFB6802
:103B1000536000BF1437BD4680BC704700100240A0
:103B20000000014080B586B000AF78607B681B68FC
:103B3000404A93422CD1404B9B693F4A43F4006377
:103B400093613D4B9B6903F400637B617B690022B9
:103B50000021182000F0D5FA182000F0EEFA00221B
:103B60000021192000F0CDFA192000F0E6FA002219
:103B700000211A2000F0C5FA1A2000F0DEFA002217
:103B800000211B2000F0BDFA1B2000F0D6FA4CE00B
:103B90007B681B68B3F1804F14D1274BDB69264A41
:103BA00043F00103D361244BDB6903F001033B6164
:103BB0003B69002200211C2000F0A3FA1C2000F029
:103BC000BCFA32E07B681B681C4A934214D11A4B42
:103BD000DB69194A43F00203D361174BDB6903F039
:103BE0000203FB60FB68002200211D2000F089FA1F
:103BF0001D2000F0A2FA18E07B681B68104A93426F
:103C000013D10D4BDB690C4A43F00403D3610A4B1B
:103C1000DB6903F00403BB60BB68002200211E20A7
:103C200000F06FFA1E2000F088FA00BF1837BD467A
:103C300080BD00BF002C0140001002400004004085
:103C40000008004080B58AB000AF786007F1180323
:103C500000221A605A609A60DA607B681B68B3F1D0
:103C6000804F18D1384B9B69374A43F00403936166
:103C7000354B9B6903F004037B617B690F23BB61B8
:103C80000223FB6102237B6207F1180319462F48C8
:103C900000F06EFA53E07B681B682D4A934230D1E6
:103CA000294B9B69284A43F004039361264B9B6987
:103CB00003F004033B613B69234B9B69224A43F0B9
:103CC00008039361204B9B6903F00803FB60FB68CA
:103CD000C023BB610223FB6102237B6207F118034F
:103CE00019461A4800F044FA0323BB610223FB6122
:103CF00002237B6207F118031946164800F038FAD0
:103D00001DE07B681B68144A934218D10E4B9B69D7
:103D10000D4A43F0080393610B4B9B6903F00803C2
:103D2000BB60BB684FF47073BB610223FB6102236D
:103D30007B6207F118031946064800F019FA00BF24
:103D40002837BD4680BD00BF00100240000801407A
:103D500000040040000C01400008004080B400AFA7
:103D6000FEE780B400AFFEE780B400AFFEE780B4AA
:103D700000AFFEE780B400AFFEE780B400AF00BF45
:103D8000BD4680BC704780B400AF00BFBD4680BC5C
:103D9000704780B400AF00BFBD4680BC704780B59F
:103DA00000AF00F0BBF800BF80BD000080B500AFE1
:103DB000024801F00DF900BF80BD00BFE400002003
:103DC00080B500AF024801F003F900BF80BD00BF1D
:103DD000E400002080B500AF024801F0F9F800BF10
:103DE00080BD00BFE400002080B500AF024801F0B4
:103DF000EFF800BF80BD00BFE400002080B500AF39
:103E0000024801F0E5F800BF80BD00BF2C01002092
:103E100080B500AF024801F0DBF800BF80BD00BFF5
:103E20007401002080B500AF024801F0D1F800BF56
:103E300080BD00BFBC01002080B400AF00BFBD4604
:103E400080BC7047FFF7F8FF0B480C490C4A002371
:103E500002E0D458C4500433C4188C42F9D3094A40
:103E6000094C002301E013600432A242FBD301F0AD
:103E700087FEFDF743FC704700000020880000200B
:103E800018790008880000200C0A0020FEE70000D6
:103E900080B500AF084B1B68074A43F0100313605E
:103EA000032000F023F90F2000F008F8FFF708FEC8
:103EB0000023184680BD00BF0020024080B582B0BC
:103EC00000AF7860124B1A68124B1B7819464FF4FA
:103ED0007A73B3FBF1F3B2FBF3F3184600F03BF94E
:103EE0000346002B01D001230EE07B680F2B0AD87C
:103EF000002279684FF0FF3000F003F9064A7B6832
:103F00001360002300E0012318460837BD4680BD3A
:103F1000140000201C0000201800002080B400AF16
:103F2000054B1B781A46054B1B681344034A136064
:103F300000BFBD4680BC70471C000020D008002098
:103F400080B400AF024B1B681846BD4680BC70476A
:103F5000D008002080B485B000AF78607B6803F0A3
:103F60000703FB600C4BDB68BB60BA684FF6FF03CE
:103F70001340BB60FB681A02BB68134343F0BF6386
:103F800043F40033BB60044ABB68D36000BF1437FE
:103F9000BD4680BC704700BF00ED00E080B400AFBC
:103FA000044BDB681B0A03F007031846BD4680BCC0
:103FB000704700BF00ED00E080B483B000AF03465F
:103FC000FB7197F90730002B0BDBFB7903F01F0225
:103FD000064997F907305B09012000FA02F241F81F
:103FE000232000BF0C37BD4680BC704700E100E0D5
:103FF00080B483B000AF03463960FB7197F9073096
:10400000002B0ADB3B68DAB20C4997F90730120142
:10401000D2B20B4483F800230AE03B68DAB20849C5
:10402000FB7903F00F03043B1201D2B20B441A7662
:1040300000BF0C37BD4680BC704700BF00E100E008
:1040400000ED00E080B489B000AFF860B9607A603C
:10405000FB6803F00703FB61FB69C3F10703042B53
:1040600028BF0423BB61FB690433062B02D9FB691B
:10407000033B00E000237B614FF0FF32BB6902FA93
:1040800003F3DA43BB681A407B699A404FF0FF3173
:104090007B6901FA03F3D9437B680B40134318464D
:1040A0002437BD4680BC704780B582B000AF7860D1
:1040B0007B68013BB3F1807F01D301230FE00A4A03
:1040C0007B68013B53600F214FF0FF30FFF790FFFB
:1040D000054B00229A60044B07221A600023184601
:1040E0000837BD4680BD00BF10E000E080B582B05B
:1040F00000AF78607868FFF72DFF00BF0837BD4636
:1041000080BD80B586B000AF0346B9607A60FB73AE
:1041100000237B61FFF742FF78617A68B9687869AC
:10412000FFF790FF024697F90F3011461846FFF748
:104130005FFF00BF1837BD4680BD80B582B000AFBD
:104140000346FB7197F907301846FFF735FF00BFAC
:104150000837BD4680BD80B582B000AF7860786812
:10416000FFF7A2FF034618460837BD4680BD000092
:1041700080B48BB000AF7860396000237B6200238D
:104180003B6269E101227B6A02FA03F3FB613B684F
:104190001B68FA691340BB61BA69FB699A4240F037
:1041A00058813B685B689A4A93425ED0984A934232
:1041B00075D8984A934258D0964A93426FD8964AF7
:1041C000934252D0944A934269D8944A93424CD035
:1041D000924A934263D8924A934246D0904A93427D
:1041E0005DD8122B2AD8122B59D801A252F823F0ED
:1041F0006B420008454200085742000899420008F7
:104200009F4200089F4200089F4200089F4200080A
:104210009F4200089F4200089F4200089F420008FA
:104220009F4200089F4200089F4200089F420008EA
:104230009F4200084D42000861420008794A9342BB
:1042400013D02CE03B68DB683B6229E03B68DB680D
:1042500004333B6224E03B68DB6808333B621FE0C9
:104260003B68DB680C333B621AE03B689B68002BC1
:1042700002D104233B6213E03B689B68012B05D10C
:1042800008233B627B68FA691A6109E008233B62F4
:104290007B68FA695A6103E000233B6200E000BFDB
:1042A000BB69FF2B01D87B6801E07B6804337B612D
:1042B000BB69FF2B02D87B6A9B0002E07B6A083B4C
:1042C0009B003B617B691A680F213B6901FA03F38C
:1042D000DB431A40396A3B6901FA03F31A437B69ED
:1042E0001A603B685B6803F08053002B00F0B180DC
:1042F0004D4B9B694C4A43F0010393614A4B9B69C8
:1043000003F00103BB60BB68484A7B6A9B08023329
:1043100052F82330FB607B6A03F003039B000F22FB
:1043200002FA03F3DB43FA681340FB607B68404A00
:10433000934213D07B683F4A93420DD07B683E4A3C
:10434000934207D07B683D4A934201D1032306E0A4
:10435000042304E0022302E0012300E000237A6A40
:1043600002F0030292009340FA681343FB602F4966
:104370007B6A9B080233FA6841F823203B685B683C
:1043800003F48013002B06D02D4B9A682C49BB698F
:1043900013438B6006E02A4B9A68BB69DB432849CC
:1043A00013408B603B685B6803F40013002B06D05E
:1043B000234BDA682249BB691343CB6006E0204BEC
:1043C000DA68BB69DB431E491340CB603B685B681E
:1043D00003F40033002B06D0194B5A681849BB6907
:1043E00013434B6006E0164B5A68BB69DB43144924
:1043F00013404B603B685B6803F48033002B21D093
:104400000F4B1A680E49BB6913430B6021E000BFD4
:1044100000003210000031100000221000002110B6
:1044200000001210000011100010024000000140B6
:1044300000080140000C0140001001400014014040
:10444000000401400B4B1A68BB69DB430949134068
:104450000B607B6A01337B623B681A687B6A22FAD5
:1044600003F3002B7FF48EAE00BF00BF2C37BD4698
:1044700080BC70470004014080B483B000AF786016
:104480000B467B8013467B707B78002B03D07A88A9
:104490007B681A6103E07B881A047B681A6100BF9D
:1044A0000C37BD4680BC704780B485B000AF7860E3
:1044B0000B467B807B68DB68FB607A88FB68134077
:1044C0001A04FB68D9437B880B401A437B681A6146
:1044D00000BF1437BD4680BC7047000080B586B071
:1044E00000AF78607B68002B01D1012372E27B680A
:1044F0001B6803F00103002B00F08780924B5B6880
:1045000003F00C03042B0CD08F4B5B6803F00C03FF
:10451000082B12D18C4B5B6803F48033B3F5803FDA
:104520000BD1894B1B6803F40033002B6CD07B68E4
:104530005B68002B68D101234CE27B685B68B3F5B4
:10454000803F06D1804B1B687F4A43F48033136061
:104550002EE07B685B68002B0CD17B4B1B687A4A92
:1045600023F480331360784B1B68774A23F480234D
:1045700013601DE07B685B68B3F5A02F0CD1724B14
:104580001B68714A43F4802313606F4B1B686E4AAB
:1045900043F4803313600BE06B4B1B686A4A23F4CF
:1045A00080331360684B1B68674A23F480231360D1
:1045B0007B685B68002B13D0FFF7C2FC386108E012
:1045C000FFF7BEFC02463B69D31A642B01D90323D3
:1045D00000E25D4B1B6803F40033002BF0D014E0C5
:1045E000FFF7AEFC386108E0FFF7AAFC02463B6922
:1045F000D31A642B01D90323ECE1534B1B6803F45A
:104600000033002BF0D100E000BF7B681B6803F093
:104610000203002B63D04C4B5B6803F00C03002BB0
:104620000BD0494B5B6803F00C03082B1CD1464BA5
:104630005B6803F48033002B16D1434B1B6803F0F7
:104640000203002B05D07B681B69012B01D00123DD
:10465000C0E13D4B1B6823F0F8027B685B69DB001F
:10466000394913430B603AE07B681B69002B20D06B
:10467000364B01221A60FFF763FC386108E0FFF750
:104680005FFC02463B69D31A022B01D90323A1E147
:104690002D4B1B6803F00203002BF0D02A4B1B6844
:1046A00023F0F8027B685B69DB00274913430B604A
:1046B00015E0264B00221A60FFF742FC386108E043
:1046C000FFF73EFC02463B69D31A022B01D90323B4
:1046D00080E11D4B1B6803F00203002BF0D17B68C7
:1046E0001B6803F00803002B3AD07B689B69002B02
:1046F00019D0174B01221A60FFF722FC386108E03D
:10470000FFF71EFC02463B69D31A022B01D9032393
:1047100060E10D4B5B6A03F00203002BF0D0012037
:1047200000F09CFA1CE00A4B00221A60FFF708FC1C
:1047300038610FE0FFF704FC02463B69D31A022BF5
:1047400008D9032346E100BF0010024000004242A6
:1047500080044242924B5B6A03F00203002BE9D1D2
:104760007B681B6803F00403002B00F0A680002385
:10477000FB758B4BDB6903F08053002B0DD1884B0D
:10478000DB69874A43F08053D361854BDB6903F0D3
:104790008053BB60BB680123FB75824B1B6803F42D
:1047A0008073002B18D17F4B1B687E4A43F48073C3
:1047B0001360FFF7C5FB386108E0FFF7C1FB024655
:1047C0003B69D31A642B01D9032303E1754B1B68A2
:1047D00003F48073002BF0D07B68DB68012B06D1DB
:1047E0006F4B1B6A6E4A43F0010313622DE07B6836
:1047F000DB68002B0CD16A4B1B6A694A23F001036A
:104800001362674B1B6A664A23F0040313621CE0C1
:104810007B68DB68052B0CD1614B1B6A604A43F057
:10482000040313625E4B1B6A5D4A43F0010313628B
:104830000BE05B4B1B6A5A4A23F001031362584B8F
:104840001B6A574A23F0040313627B68DB68002B62
:1048500015D0FFF775FB38610AE0FFF771FB0246E0
:104860003B69D31A41F28832934201D90323B1E064
:104870004B4B1B6A03F00203002BEED014E0FFF752
:104880005FFB38610AE0FFF75BFB02463B69D31A26
:1048900041F28832934201D903239BE0404B1B6ACB
:1048A00003F00203002BEED1FB7D012B05D13C4B25
:1048B000DB693B4A23F08053D3617B68DB69002BC3
:1048C00000F08780364B5B6803F00C03082B61D047
:1048D0007B68DB69022B46D1334B00221A60FFF75D
:1048E0002FFB386108E0FFF72BFB02463B69D31A28
:1048F000022B01D903236DE0294B1B6803F00073E1
:10490000002BF0D17B681B6AB3F5803F08D1244BA4
:104910005B6823F400327B689B68214913434B603A
:104920001F4B5B6823F474127B68196A7B685B6AAF
:104930000B431B4913434B601B4B01221A60FFF7CB
:10494000FFFA386108E0FFF7FBFA02463B69D31A29
:10495000022B01D903233DE0114B1B6803F00073C8
:10496000002BF0D035E0104B00221A60FFF7E8FA78
:10497000386108E0FFF7E4FA02463B69D31A022BDC
:1049800001D9032326E0064B1B6803F00073002BBC
:10499000F0D11EE07B68DB69012B07D1012319E010
:1049A0000010024000700040600042420B4B5B6808
:1049B000FB60FB6803F480327B681B6A9A4206D175
:1049C000FB6803F470127B685B6A9A4201D0012392
:1049D00000E0002318461837BD4680BD0010024095
:1049E00080B584B000AF786039607B68002B01D15E
:1049F0000123D0E06A4B1B6803F007033A689A4230
:104A000010D9674B1B6823F0070265493B681343C5
:104A10000B60634B1B6803F007033A689A4201D0AE
:104A20000123B8E07B681B6803F00203002B20D051
:104A30007B681B6803F00403002B05D0594B5B68AF
:104A4000584A43F4E06353607B681B6803F0080333
:104A5000002B05D0534B5B68524A43F460535360BC
:104A6000504B5B6823F0F0027B689B684D49134311
:104A70004B607B681B6803F00103002B40D07B6810
:104A80005B68012B07D1474B1B6803F40033002BF5
:104A900015D101237FE07B685B68022B07D1414B76
:104AA0001B6803F00073002B09D1012373E03D4B19
:104AB0001B6803F00203002B01D101236BE0394B8B
:104AC0005B6823F003027B685B68364913434B60E5
:104AD000FFF736FAF8600AE0FFF732FA0246FB68A1
:104AE000D31A41F28832934201D9032353E02D4B6C
:104AF0005B6803F00C027B685B689B009A42EBD119
:104B0000274B1B6803F007033A689A4210D2244BE4
:104B10001B6823F0070222493B6813430B60204BBC
:104B20001B6803F007033A689A4201D0012332E080
:104B30007B681B6803F00403002B08D0194B5B68EB
:104B400023F4E0627B68DB68164913434B607B68A3
:104B50001B6803F00803002B09D0124B5B6823F499
:104B600060527B681B69DB000E4913434B6000F009
:104B700021F802460B4B5B681B0903F00F030A493F
:104B8000CB5C22FA03F3094A1360094B1B681846F1
:104B9000FFF794F9002318461037BD4680BD00BFCB
:104BA000002002400010024080780008140000201D
:104BB0001800002080B487B000AF0023FB60002302
:104BC000BB6000237B6100237B6000233B611E4BA5
:104BD0005B68FB60FB6803F00C03042B02D0082B1E
:104BE00003D027E0194B3B6127E0FB689B0C03F0E7
:104BF0000F03174AD35C7B60FB6803F48033002B00
:104C000010D0114B5B685B0C03F00103114AD35CBD
:104C1000BB607B680D4A03FB02F2BB68B2FBF3F397
:104C20007B6104E07B680C4A02FB03F37B617B69D8
:104C30003B6102E0054B3B6100BF3B6918461C37F6
:104C4000BD4680BC704700BF0010024000127A00D1
:104C500090780008A078000800093D0080B485B075
:104C600000AF78600A4B1B680A4AA2FB03235B0A69
:104C70007A6802FB03F3FB6000BFFB685A1EFA6010
:104C8000002BF9D100BF00BF1437BD4680BC704770
:104C900014000020D34D621080B582B000AF786060
:104CA0007B68002B01D1012341E07B6893F83D3004
:104CB000DBB2002B06D17B68002283F83C207868A9
:104CC000FEF730FF7B68022283F83D207B681A687C
:104CD0007B6804331946104600F030FC7B680122E3
:104CE00083F846207B68012283F83E207B680122FE
:104CF00083F83F207B68012283F840207B680122F3
:104D000083F841207B68012283F842207B680122DE
:104D100083F843207B68012283F844207B680122CA
:104D200083F845207B68012283F83D200023184644
:104D30000837BD4680BD000080B485B000AF786004
:104D40007B6893F83D30DBB2012B01D001233AE0C0
:104D50007B68022283F83D207B681B68DA687B68E9
:104D60001B6842F00102DA607B681B68184A9342B4
:104D70000ED07B681B68B3F1804F09D07B681B683D
:104D8000144A934204D07B681B68134A934211D1A2
:104D90007B681B689B6803F00703FB60FB68062BBE
:104DA00010D07B681B681A687B681B6842F00102A0
:104DB0001A6007E07B681B681A687B681B6842F012
:104DC00001021A60002318461437BD4680BC7047A4
:104DD000002C0140000400400008004080B582B073
:104DE00000AF78607B68002B01D1012341E07B6834
:104DF00093F83D30DBB2002B06D17B68002283F8AC
:104E00003C20786800F039F87B68022283F83D2066
:104E10007B681A687B6804331946104600F08EFBE5
:104E20007B68012283F846207B68012283F83E20BC
:104E30007B68012283F83F207B68012283F84020B1
:104E40007B68012283F841207B68012283F842209D
:104E50007B68012283F843207B68012283F8442089
:104E60007B68012283F845207B68012283F83D207E
:104E7000002318460837BD4680BD80B483B000AF1C
:104E8000786000BF0C37BD4680BC704780B584B0E9
:104E900000AF786039603B68002B09D17B6893F8DC
:104EA0003E30DBB2012B14BF01230023DBB222E032
:104EB0003B68042B09D17B6893F83F30DBB2012BB0
:104EC00014BF01230023DBB215E03B68082B09D196
:104ED0007B6893F84030DBB2012B14BF0123002321
:104EE000DBB208E07B6893F84130DBB2012B14BFE2
:104EF00001230023DBB2002B01D001235EE03B68DD
:104F0000002B04D17B68022283F83E2013E03B682B
:104F1000042B04D17B68022283F83F200BE03B681E
:104F2000082B04D17B68022283F8402003E07B68D1
:104F3000022283F841207B681B68012239681846E9
:104F400000F07CFD7B681B681E4A934207D17B689A
:104F50001B685A6C7B681B6842F400425A647B6889
:104F60001B68184A93420ED07B681B68B3F1804FD0
:104F700009D07B681B68144A934204D07B681B6885
:104F8000124A934211D17B681B689B6803F00703A8
:104F9000FB60FB68062B10D07B681B681A687B6877
:104FA0001B6842F001021A6007E07B681B681A6800
:104FB0007B681B6842F001021A6000231846103714
:104FC000BD4680BD002C01400004004000080040A8
:104FD00080B582B000AF78607B681B681B6903F006
:104FE0000203022B22D17B681B68DB6803F00203FB
:104FF000022B1BD17B681B686FF002021A617B6871
:1050000001221A777B681B689B6903F00303002B5E
:1050100003D0786800F076FA05E0786800F069FA65
:10502000786800F078FA7B6800221A777B681B6842
:105030001B6903F00403042B22D17B681B68DB6827
:1050400003F00403042B1BD17B681B686FF0040280
:105050001A617B6802221A777B681B689B6903F4DC
:105060004073002B03D0786800F04CFA05E07868B4
:1050700000F03FFA786800F04EFA7B6800221A7759
:105080007B681B681B6903F00803082B22D17B682F
:105090001B68DB6803F00803082B1BD17B681B68C7
:1050A0006FF008021A617B6804221A777B681B681C
:1050B000DB6903F00303002B03D0786800F022FAC9
:1050C00005E0786800F015FA786800F024FA7B684B
:1050D00000221A777B681B681B6903F01003102BF2
:1050E00022D17B681B68DB6803F01003102B1BD1F7
:1050F0007B681B686FF010021A617B6808221A77C0
:105100007B681B68DB6903F44073002B03D078686D
:1051100000F0F8F905E0786800F0EBF9786800F045
:10512000FAF97B6800221A777B681B681B6903F019
:105130000103012B0ED17B681B68DB6803F00103C0
:10514000012B07D17B681B686FF001021A61786838
:10515000FCF7CCFD7B681B681B6903F08003802B88
:105160000ED17B681B68DB6803F08003802B07D1BE
:105170007B681B686FF080021A61786800F0E9FCB8
:105180007B681B681B6903F04003402B0ED17B68D2
:105190001B68DB6803F04003402B07D17B681B686A
:1051A0006FF040021A61786800F0BEF97B681B68F6
:1051B0001B6903F02003202B0ED17B681B68DB6882
:1051C00003F02003202B07D17B681B686FF02002BF
:1051D0001A61786800F0B4FC00BF0837BD4680BD96
:1051E00080B586B000AFF860B9607A600023FB75C7
:1051F000FB6893F83C30012B01D10223AEE0FB6841
:10520000012283F83C207B680C2B00F29F8001A2D6
:1052100052F823F0495200084D5300084D5300083E
:105220004D530008895200084D5300084D530008A3
:105230004D530008CB5200084D5300084D53000851
:105240004D5300080B530008FB681B68B9681846EB
:1052500000F0D6F9FB681B689A69FB681B6842F08E
:1052600008029A61FB681B689A69FB681B6822F058
:1052700004029A61FB681B689969BB681A69FB683C
:105280001B680A439A6164E0FB681B68B9681846AA
:1052900000F01CFAFB681B689A69FB681B6842F403
:1052A00000629A61FB681B689A69FB681B6822F4BC
:1052B00080629A61FB681B689969BB681B691A0266
:1052C000FB681B680A439A6143E0FB681B68B96886
:1052D000184600F065FAFB681B68DA69FB681B6812
:1052E00042F00802DA61FB681B68DA69FB681B6838
:1052F00022F00402DA61FB681B68D969BB681A698D
:10530000FB681B680A43DA6123E0FB681B68B96825
:10531000184600F0AFFAFB681B68DA69FB681B6887
:1053200042F40062DA61FB681B68DA69FB681B689B
:1053300022F48062DA61FB681B68D969BB681B696B
:105340001A02FB681B680A43DA6102E00123FB755D
:1053500000BFFB68002283F83C20FB7D184618370D
:10536000BD4680BD80B584B000AF78603960002351
:10537000FB737B6893F83C30012B01D10223B4E02E
:105380007B68012283F83C207B68022283F83D2061
:105390007B681B689B68BB60BB6823F07703BB60BE
:1053A000BB6823F47F43BB607B681B68BA689A6064
:1053B0003B681B68B3F5005F3ED0B3F5005F00F2B9
:1053C0008780B3F5805F00F08680B3F5805F7FD87B
:1053D000702B1AD0702B7BD8602B50D0602B77D8D5
:1053E000502B3CD0502B73D8402B58D0402B6FD82B
:1053F000302B64D0302B6BD8202B60D0202B67D87B
:10540000002B5CD0102B5AD062E07B6818683B6898
:1054100099683B685A683B68DB6800F0F0FA7B6883
:105420001B689B68BB60BB6843F07703BB607B680D
:105430001B68BA689A604FE07B6818683B68996897
:105440003B685A683B68DB6800F0D9FA7B681B68E8
:105450009A687B681B6842F480429A603CE07B68F3
:1054600018683B6859683B68DB681A4600F050FAD8
:105470007B681B685021184600F0A7FA2CE07B6877
:1054800018683B6859683B68DB681A4600F06EFA9A
:105490007B681B686021184600F097FA1CE07B6867
:1054A00018683B6859683B68DB681A4600F030FAB8
:1054B0007B681B684021184600F087FA0CE07B6887
:1054C0001A683B681B681946104600F07EFA03E034
:1054D0000123FB7300E000BF7B68012283F83D20BD
:1054E0007B68002283F83C20FB7B18461037BD46C2
:1054F00080BD80B483B000AF786000BF0C37BD467C
:1055000080BC704780B483B000AF786000BF0C37B8
:10551000BD4680BC704780B483B000AF786000BFE8
:105520000C37BD4680BC704780B483B000AF786054
:1055300000BF0C37BD4680BC7047000080B485B00A
:1055400000AF786039607B681B68FB607B68294A24
:1055500093420BD07B68B3F1804F07D07B68264A1B
:10556000934203D07B68254A934208D1FB6823F01D
:105570007003FB603B685B68FA681343FB607B6801
:105580001C4A93420BD07B68B3F1804F07D07B68F5
:10559000194A934203D07B68184A934208D1FB68AA
:1055A00023F44073FB603B68DB68FA681343FB60DD
:1055B000FB6823F080023B685B691343FB607B68F8
:1055C000FA681A603B689A687B68DA623B681A6816
:1055D0007B689A627B68074A934203D13B681A69E9
:1055E0007B681A637B6801225A6100BF1437BD468D
:1055F00080BC7047002C01400004004000080040BF
:1056000080B487B000AF786039607B681B6A7B61CB
:105610007B681B6A23F001027B681A627B685B6807
:105620003B617B689B69FB60FB6823F07003FB6058
:10563000FB6823F00303FB603B681B68FA681343B5
:10564000FB607B6923F002037B613B689B687A699E
:1056500013437B617B681C4A93420CD17B6923F026
:1056600008037B613B68DB687A6913437B617B6974
:1056700023F004037B617B68134A934211D13B6999
:1056800023F480733B613B6923F400733B613B6807
:105690005B693A6913433B613B689B693A69134311
:1056A0003B617B683A695A607B68FA689A613B683B
:1056B0005A687B685A637B687A691A6200BF1C3734
:1056C000BD4680BC704700BF002C014080B487B04D
:1056D00000AF786039607B681B6A7B617B681B6AFE
:1056E00023F010027B681A627B685B683B617B6811
:1056F0009B69FB60FB6823F4E043FB60FB6823F4D9
:105700004073FB603B681B681B02FA681343FB6035
:105710007B6923F020037B613B689B681B017A69EE
:1057200013437B617B681D4A93420DD17B6923F053
:1057300080037B613B68DB681B017A6913437B61F3
:105740007B6923F040037B617B68144A934213D149
:105750003B6923F480633B613B6923F400633B6155
:105760003B685B699B003A6913433B613B689B69FB
:105770009B003A6913433B617B683A695A607B68D6
:10578000FA689A613B685A687B689A637B687A69B1
:105790001A6200BF1C37BD4680BC7047002C014018
:1057A00080B487B000AF786039607B681B6A7B612A
:1057B0007B681B6A23F480727B681A627B685B6873
:1057C0003B617B68DB69FB60FB6823F07003FB6077
:1057D000FB6823F00303FB603B681B68FA68134314
:1057E000FB607B6923F400737B613B689B681B0251
:1057F0007A6913437B617B681D4A93420DD17B69B3
:1058000023F400637B613B68DB681B027A69134306
:105810007B617B6923F480637B617B68144A9342DC
:1058200013D13B6923F480533B613B6923F400535C
:105830003B613B685B691B013A6913433B613B6811
:105840009B691B013A6913433B617B683A695A6063
:105850007B68FA68DA613B685A687B68DA637B6860
:105860007A691A6200BF1C37BD4680BC704700BF12
:10587000002C014080B487B000AF786039607B684D
:105880001B6A3B617B681B6A23F480527B681A6247
:105890007B685B687B617B68DB69FB60FB6823F48A
:1058A000E043FB60FB6823F44073FB603B681B68CC
:1058B0001B02FA681343FB603B6923F400533B610E
:1058C0003B689B681B033A6913433B617B680F4A43
:1058D000934209D17B6923F480437B613B685B6918
:1058E0009B017A6913437B617B687A695A607B68A4
:1058F000FA68DA613B685A687B681A647B683A69BF
:105900001A6200BF1C37BD4680BC7047002C0140A6
:1059100080B487B000AFF860B9607A60FB681B6A3A
:105920007B61FB681B6A23F00102FB681A62FB685B
:105930009B693B613B6923F0F0033B617B681B0182
:105940003A6913433B617B6923F00A037B617A69FF
:10595000BB6813437B61FB683A699A61FB687A69AB
:105960001A6200BF1C37BD4680BC704780B487B048
:1059700000AFF860B9607A60FB681B6A7B61FB6806
:105980001B6A23F01002FB681A62FB689B693B618B
:105990003B6923F470433B617B681B033A69134303
:1059A0003B617B6923F0A0037B61BB681B017A69C3
:1059B00013437B61FB683A699A61FB687A691A62F2
:1059C00000BF1C37BD4680BC704780B485B000AFB7
:1059D000786039607B689B68FB60FB6823F070032C
:1059E000FB603A68FB68134343F00703FB607B6886
:1059F000FA689A6000BF1437BD4680BC704780B417
:105A000087B000AFF860B9607A603B60FB689B6864
:105A10007B617B6923F47F437B613B681A027B686F
:105A20001A43BB6813437A6913437B61FB687A6945
:105A30009A6000BF1C37BD4680BC704780B487B0F9
:105A400000AFF860B9607A60BB6803F01F03012201
:105A500002FA03F37B61FB681A6A7B69DB431A4035
:105A6000FB681A62FB681A6ABB6803F01F03796857
:105A700001FA03F31A43FB681A6200BF1C37BD46E4
:105A800080BC704780B485B000AF786039607B68B7
:105A900093F83C30012B01D1022346E07B680122C0
:105AA00083F83C207B68022283F83D207B681B68DA
:105AB0005B68FB607B681B689B68BB60FB6823F0CE
:105AC0007003FB603B681B68FA681343FB607B68EC
:105AD0001B68FA685A607B681B68164A93420ED0AE
