:020000040800F2
:10000000005000203D1E0008551D00085B1D000823
:10001000611D0008671D00086D1D0008000000003C
:10002000000000000000000000000000731D000838
:100030007F1D0008000000008B1D0008971D0008B0
:10004000851E0008851E0008851E0008851E000804
:10005000851E0008851E0008851E0008851E0008F4
:10006000851E0008851E0008851E0008851E0008E4
:10007000851E0008851E0008851E0008851E0008D4
:10008000851E0008851E0008851E0008851E0008C4
:10009000851E0008851E0008851E0008851E0008B4
:1000A000A51D0008B91D0008CD1D0008E11D0008B0
:1000B000F51D0008091E00081D1E0008851E000809
:1000C000851E0008851E0008851E0008851E000884
:1000D000851E0008851E0008851E0008851E000874
:1000E000851E0008851E0008851E0008000000000F
:1000F0000000000000000000000000000000000000
:0C01000000000000000000005FF808F1A3
:10010C0010B5054C237833B9044B13B10448AFF345
:10011C0000800123237010BD1C0000200000000093
:10012C00B43B000808B5034B1BB103490348AFF3BC
:10013C00008008BD0000000020000020B43B000837
:10014C0080F0004002E000BF81F0004142001FBF80
:10015C005FEA410392EA030F7FEA226C7FEA236C89
:10016C006AD04FEA1262D2EB1363C1BFD21841407E
:10017C0048404140B8BF5B42192B88BF704710F014
:10018C00004F40F4000020F07F4018BF404211F0B7
:10019C00004F41F4000121F07F4118BF494292EA1F
:1001AC00030F3FD0A2F1010241FA03FC10EB0C004B
:1001BC00C3F1200301FA03F100F0004302D54942D8
:1001CC0060EB4000B0F5000F13D3B0F1807F06D385
:1001DC0040084FEA310102F10102FE2A51D2B1F17D
:1001EC00004F40EBC25008BF20F0010040EA030072
:1001FC007047490040EB0000013A28BFB0F5000FF2
:10020C00EDD2B0FA80FCACF1080CB2EB0C0200FAA7
:10021C000CF0AABF00EBC25052421843BCBFD040F6
:10022C001843704792F0000F81F4000106BF80F470
:10023C0000000132013BB5E74FEA41037FEA226C33
:10024C0018BF7FEA236C21D092EA030F04D092F0FE
:10025C00000F08BF0846704790EA010F1CBF002032
:10026C00704712F07F4F04D1400028BF40F000408F
:10027C00704712F100723CBF00F50000704700F0AF
:10028C00004343F0FE4040F4000070477FEA2262D6
:10029C0016BF08467FEA23630146420206BF5FEAA7
:1002AC00412390EA010F40F4800070474FF00003A7
:1002BC0004E000BF10F0004348BF40425FEA000C6E
:1002CC0008BF704743F0964301464FF000001CE016
:1002DC0050EA010208BF70474FF000030AE000BF6C
:1002EC0050EA010208BF704711F0004302D54042AA
:1002FC0061EB41015FEA010C02BF8446014600201C
:10030C0043F0B64308BFA3F18053A3F50003BCFA36
:10031C008CF2083AA3EBC25310DB01FA02FC6344E3
:10032C0000FA02FCC2F12002BCF1004F20FA02F2EA
:10033C0043EB020008BF20F00100704702F12002DD
:10034C0001FA02FCC2F1200250EA4C0021FA02F23E
:10035C0043EB020008BF20EADC7070474FF0FF0C43
:10036C001CEAD0521EBF1CEAD15392EA0C0F93EA3E
:10037C000C0F6FD01A4480EA010C400218BF5FEAE0
:10038C0041211ED04FF0006343EA501043EA511153
:10039C00A0FB01310CF00040B1F5000F3EBF49004D
:1003AC0041EAD3715B0040EA010062F17F02FD2A51
:1003BC001DD8B3F1004F40EBC25008BF20F0010034
:1003CC00704790F0000F0CF0004C08BF49024CEA4B
:1003DC00502040EA51207F3AC2BFD2F1FF0340EADD
:1003EC00C250704740F400004FF00003013A5DDC4E
:1003FC0012F1190FDCBF00F000407047C2F100028F
:10040C00410021FA02F1C2F1200200FA02FC5FEA7B
:10041C00310040F1000053EA4C0308BF20EADC70C5
:10042C00704792F0000F00F0004C02BF400010F437
:10043C00000F013AF9D040EA0C0093F0000F01F0E4
:10044C00004C02BF490011F4000F013BF9D041EA06
:10045C000C018FE70CEAD15392EA0C0F18BF93EA08
:10046C000C0F0AD030F0004C18BF31F0004CD8D132
:10047C0080EA010000F00040704790F0000F17BFB9
:10048C0090F0004F084691F0000F91F0004F14D0FF
:10049C0092EA0C0F01D142020FD193EA0C0F03D157
:1004AC004B0218BF084608D180EA010000F000405A
:1004BC0040F0FE4040F40000704740F0FE4040F435
:1004CC00400070474FF0FF0C1CEAD0521EBF1CEAD4
:1004DC00D15392EA0C0F93EA0C0F69D0A2EB0302F2
:1004EC0080EA010C49024FEA402037D04FF080538C
:1004FC0043EA111143EA10130CF000408B4238BF51
:10050C005B0042F17D024FF4000C8B4224BF5B1A5E
:10051C0040EA0C00B3EB510F24BFA3EB510340EAAC
:10052C005C00B3EB910F24BFA3EB910340EA9C005A
:10053C00B3EBD10F24BFA3EBD10340EADC001B01CA
:10054C0018BF5FEA1C1CE0D1FD2A3FF650AF8B426E
:10055C0040EBC25008BF20F0010070470CF0004C7B
:10056C004CEA50207F32C2BFD2F1FF0340EAC250A6
:10057C00704740F400004FF00003013A37E792F067
:10058C00000F00F0004C02BF400010F4000F013AC5
:10059C00F9D040EA0C0093F0000F01F0004C02BFC0
:1005AC00490011F4000F013BF9D041EA0C0195E729
:1005BC000CEAD15392EA0C0F08D142027FF47DAFC2
:1005CC0093EA0C0F7FF470AF084676E793EA0C0FB2
:1005DC0004D14B023FF44CAF08466EE730F0004CB0
:1005EC0018BF31F0004CCAD130F000427FF45CAF40
:1005FC0031F000437FF43CAF5FE700BF4FF0FF3CAE
:10060C0006E000BF4FF0010C02E000BF4FF0010C00
:10061C004DF804CD4FEA40024FEA41037FEA226CC9
:10062C0018BF7FEA236C11D001B052EA530C18BFEB
:10063C0090EA010F58BFB2EB030088BFC81738BF50
:10064C006FEAE17018BF40F0010070477FEA226C3E
:10065C0002D15FEA402C05D17FEA236CE4D15FEA3A
:10066C00412CE1D05DF8040B704700BF844608466E
:10067C006146FFE70FB5FFF7C9FF002848BF10F12F
:10068C00000F0FBD4DF808EDFFF7F4FF0CBF012074
:10069C0000205DF808FB00BF4DF808EDFFF7EAFFFE
:1006AC0034BF012000205DF808FB00BF4DF808EDB9
:1006BC00FFF7E0FF94BF012000205DF808FB00BFAE
:1006CC004DF808EDFFF7D2FF94BF012000205DF834
:1006DC0008FB00BF4DF808EDFFF7C8FF34BF012041
:1006EC0000205DF808FB00BF42000ED2B2F1FE4FB5
:1006FC000BD34FF09E03B3EB126209D44FEA0023E5
:10070C0043F0004323FA02F070474FF000007047AB
:10071C0012F1610F01D1420202D14FF0FF3070474C
:10072C004FF00000704700BF80B483B000AF0023CF
:10073C00FB712EE0FB791B4A1B0113440C221A702F
:10074C00FB79184A1B01134401330C221A70FB79F4
:10075C00144A1B01134402330C221A70FB79114A00
:10076C001B01134404334FF000021A60FB790D4A4D
:10077C001B01134408334FF000021A60FB79094A3D
:10078C001B0113440C334FF000021A60FB79013348
:10079C00FB71FB79032BCDD900BF00BF0C37BD46D5
:1007AC0080BC70473800002080B485B000AF034691
:1007BC00FB710B46BB7113467B710023FB7345E049
:1007CC00FB7B274A1B0113441B780C2B3AD1FB7B78
:1007DC00234A1B01134401331B780C2B32D1FB7BB6
:1007EC001F4A1B01134402331B780C2B2AD1FB7BB1
:1007FC001B4A1B011344FA791A70FB7B184A1B0124
:10080C0013440133BA791A70FB7B154A1B0113444C
:10081C0002337A791A70FB7B114A1B01134404339F
:10082C00104A1A60FB7B0E4A1B01134408330E4A14
:10083C001A60FB7B0A4A1B0113440C330B4A1A60E7
:10084C00FB7B07E000BFFB7B0133FB73FB7B032BC4
:10085C00B6D9042318461437BD4680BC704700BF78
:10086C00380000200000AA420000B4420000A04062
:10087C0080B500AF01F002FB00F056F800F0AAFAC8
:10088C0000F092F800F0E0F800F074F900F00AFAC9
:10089C00204802F047FA00211F4802F0EDFA04212B
:1008AC001D4802F0E9FA08211B4802F0E5FA0C2178
:1008BC00194802F0E1FA0021184802F0DDFA04218F
:1008CC00164802F0D9FA0821144802F0D5FA0C2186
:1008DC00124802F0D1FA0021114802F0CDFA04219D
:1008EC000F4802F0C9FA08210D4802F0C5FA0C2194
:1008FC000B4802F0C1FA00F00DFC00F0C1FA4FF405
:10090C007A734FF47A720021064800F0A1FC00F0D3
:10091C0081FCFCE778000020C000002008010020CA
:10092C00500100206510000880B590B000AF07F1B1
:10093C00180328220021184603F00AF93B1D002257
:10094C001A605A609A60DA601A610223BB61012353
:10095C00BB621023FB6202237B630023BB63002377
:10096C00FB6307F11803184601F0AEFD0346002B9C
:10097C0001D000F07FFA0F237B600223BB600023C1
:10098C00FB604FF480633B6100237B613B1D0021C6
:10099C00184602F01BF80346002B01D000F06AFA4F
:1009AC0000BF4037BD4680BD80B586B000AF07F1B3
:1009BC00080300221A605A609A60DA603B460022F3
:1009CC001A605A601E4B1F4A1A601D4B00225A6057
:1009DC001B4B00229A601A4B41F63F72DA60184B9F
:1009EC0000221A61164B00225A61154B00229A61A3
:1009FC00134802F047F90346002B01D000F03AFAF5
:100A0C004FF48053BB6007F1080319460C4802F001
:100A1C009FFC0346002B01D000F02CFA00233B6016
:100A2C0000237B603B461946054803F021F803463A
:100A3C00002B01D000F01EFA00BF1837BD4680BD58
:100A4C0078000020002C014080B58EB000AF07F17B
:100A5C00280300221A605A609A60DA6007F12003BA
:100A6C0000221A605A603B1D00221A605A609A607C
:100A7C00DA601A615A619A613D4B4FF080421A60FC
:100A8C003B4B03225A603A4B00229A60384B49F692
:100A9C003F42DA60364B00221A61354B00229A61D4
:100AAC00334802F0EFF80346002B01D000F0E2F9D6
:100ABC004FF48053BB6207F1280319462C4802F00F
:100ACC0047FC0346002B01D000F0D4F9284802F073
:100ADC007BF90346002B01D000F0CCF900233B62DC
:100AEC0000237B6207F120031946214802F0C0FF66
:100AFC000346002B01D000F0BDF960237B6000237E
:100B0C00BB600023FB6000237B613B1D0022194668
:100B1C00174802F05BFB0346002B01D000F0AAF94A
:100B2C003B1D04221946124802F050FB0346002BD1
:100B3C0001D000F09FF93B1D082219460C4802F029
:100B4C0045FB0346002B01D000F094F93B1D0C2211
:100B5C001946074802F03AFB0346002B01D000F07F
:100B6C0089F9034801F064F800BF3837BD4680BDF1
:100B7C00C000002080B58EB000AF07F12803002222
:100B8C001A605A609A60DA6007F1200300221A603A
:100B9C005A603B1D00221A605A609A60DA601A6132
:100BAC005A619A613D4B3E4A1A603C4B03225A6093
:100BBC003A4B00229A60394B49F63F42DA60374B88
:100BCC0000221A61354B00229A61344802F05AF81F
:100BDC000346002B01D000F04DF94FF48053BB625B
:100BEC0007F1280319462D4802F0B2FB0346002BEF
:100BFC0001D000F03FF9294802F0E6F80346002B3B
:100C0C0001D000F037F900233B6200237B6207F12F
:100C1C0020031946214802F02BFF0346002B01D07C
:100C2C0000F028F960237B600023BB600023FB608D
:100C3C0000237B613B1D00221946184802F0C6FABE
:100C4C000346002B01D000F015F93B1D0422194678
:100C5C00124802F0BBFA0346002B01D000F00AF94F
:100C6C003B1D082219460D4802F0B0FA0346002B32
:100C7C0001D000F0FFF83B1D0C221946074802F08A
:100C8C00A5FA0346002B01D000F0F4F8034800F05D
:100C9C00CFFF00BF3837BD4680BD00BF0801002024
:100CAC000004004080B58EB000AF07F1280300228D
:100CBC001A605A609A60DA6007F1200300221A6009
:100CCC005A603B1D00221A605A609A60DA601A6101
:100CDC005A619A613D4B3E4A1A603C4B03225A6062
:100CEC003A4B00229A60394B49F63F42DA60374B57
:100CFC0000221A61354B00229A61344801F0C2FF80
:100D0C000346002B01D000F0B5F84FF48053BB62C2
:100D1C0007F1280319462D4802F01AFB0346002B55
:100D2C0001D000F0A7F8294802F04EF80346002B3A
:100D3C0001D000F09FF800233B6200237B6207F197
:100D4C0020031946214802F093FE0346002B01D0E4
:100D5C0000F090F860237B600023BB600023FB60F5
:100D6C0000237B613B1D00221946184802F02EFA25
:100D7C000346002B01D000F07DF83B1D04221946E0
:100D8C00124802F023FA0346002B01D000F072F84F
:100D9C003B1D082219460D4802F018FA0346002B99
:100DAC0001D000F067F83B1D0C221946074802F0F1
:100DBC000DFA0346002B01D000F05CF8034800F05C
:100DCC0037FF00BF3837BD4680BD00BF5001002043
:100DDC000008004080B586B000AF07F10803002280
:100DEC001A605A609A60DA60174B9B69164A43F096
:100DFC0004039361144B9B6903F004037B607B68D1
:100E0C00114B9B69104A43F0080393610E4B9B698D
:100E1C0003F008033B603B68002220210B4801F0E3
:100E2C0021FB2023BB600123FB6000233B610223D9
:100E3C007B6107F108031946044801F08FF900BFE4
:100E4C001837BD4680BD00BF0010024000080140AD
:100E5C0080B582B000AF78607B681B68044A93420F
:100E6C0001D100F0B1F900BF0837BD4680BD00BF0D
:100E7C00002C014080B400AF72B600BFFEE700004A
:100E8C0080B500AF5E4B00221A705E4B04221A70C4
:100E9C005D4B04221A705C4B04225A7000F0F0FC7B
:100EAC00FFF742FC4FF000020021584800F01AFDF9
:100EBC0003461A46564B1A704FF000020421534851
:100ECC0000F010FD03461A46524B1A704FF0000208
:100EDC0008214E4800F006FD03461A464E4B1A7088
:100EEC004FF000020C21494800F0FCFC03461A4666
:100EFC004A4B1A704FF000020021494800F0F2FCF6
:100F0C0003461A46474B1A704FF00002042144481E
:100F1C0000F0E8FC03461A46434B1A704FF00002EF
:100F2C0008213F4800F0DEFC03461A463F4B1A707E
:100F3C004FF000020C213A4800F0D4FC03461A464C
:100F4C003B4B1A704FF0000200213A4800F0CAFCEB
:100F5C0003461A46384B1A704FF0000204213548EC
:100F6C0000F0C0FC03461A46344B1A704FF00002D6
:100F7C000821304800F0B6FC03461A46304B1A7074
:100F8C004FF000020C212B4800F0ACFC03461A4633
:100F9C002C4B1A701E4B1B78224A1178264A127859
:100FAC001846FFF701FC03461A46274B1A70194BDB
:100FBC001B781D4A1178214A12781846FFF7F4FB6A
:100FCC0003461A46214B1A70134B1B78174A11789B
:100FDC001B4A12781846FFF7E7FB03461A461C4BD0
:100FEC001A700E4B1B78124A1178164A1278184652
:100FFC00FFF7DAFB03461A46164B1A7000BF80BD8A
:10100C00980100209C010020A0010020C0000020BD
:10101C00000000200100002002000020030000203E
:10102C00080100200400002005000020060000201C
:10103C0007000020500100200800002009000020BB
:10104C000A0000200B0000200C0000200D000020E6
:10105C000E0000200F00002080B584B000AF786037
:10106C00204B1B78FB73204B1B78002B0BD1FB7B8D
:10107C001E4A1B0113440C334FF000021A601A4B2A
:10108C0001221A7021E0184B1B78012B0AD1FB7B33
:10109C00164A1B0113440C33154A1A60124B0222D8
:1010AC001A7012E0104B1B78022B0BD1FB7B0F4AF2
:1010BC001B0113440C334FF000021A600A4B002240
:1010CC001A7002E0084B00221A70FB7B1B01074AC6
:1010DC00991800230022074800F0BAF800BF103717
:1010EC00BD4680BD00000020A2010020840300202A
:1010FC000000B442B119000880B582B000AF78602E
:10110C002021034801F0C6F900BF0837BD4680BD59
:10111C000008014080B582B000AF0023FB7141E0B4
:10112C00FA79274913465B001344DB000B44002279
:10113C001A60FA79224913465B001344DB000B4416
:10114C00043300221A60FA79FB79C3F11403D8B284
:10115C001B4913465B001344DB000B440833024667
:10116C001A70FA79164913465B001344DB000B44E2
:10117C000C3300221A60FA79114913465B001344B0
:10118C00DB000B44103300221A60FA790C49134629
:10119C005B001344DB000B44143300221A70FB7900
:1011AC000133FB71FB79132BBAD94FF47A730022FC
:1011BC000021044800F04CF800BF0837BD4680BD44
:1011CC00A40100200511000880B400AF104B1B686F
:1011DC00002B18D00E4BDB68002B0CD00C4BDB68B3
:1011EC00012B05D90A4BDB68013B094AD36002E0AD
:1011FC00074B0022DA60064BDB68002B04D1044B52
:10120C0001221A7500E000BFBD4680BC704700BFCC
:10121C00A401002080B500AF0C4B1B7D002B12D01D
:10122C000A4B1B68094A526810469847074B1B69C2
:10123C00002B02D000F0BCF906E0044B1B7A1846D8
:10124C0000F01AF900E000BF80BD00BFA40100202F
:10125C00B0B489B000AFF860B9607A603B60854B80
:10126C00D3F8C831002B01D00023FDE0814B93F85B
:10127C00D0317B760023FB610023FB76EFE0FA7E16
:10128C007C4913465B001344DB000B440C331B6896
:10129C00FA691344FB61FA697B689A420AD8FA7EB0
:1012AC00744913465B001344DB000B441B68002B92
:1012BC0040F0D2801323BB7619E0BB7E5A1EB97E58
:1012CC006C480B465B000B44DB0018446949134621
:1012DC005B001344DB000B4404461D460FCD0FC4CA
:1012EC0095E8030084E80300BB7E013BBB76BA7E25
:1012FC00FB7E9A42E1D8FA7E5E4913465B001344AA
:10130C00DB000B44FA681A60FA7E5A4913465B00FC
:10131C001344DB000B440433BA681A60FA7E554957
:10132C0013465B001344DB000B4408337A7E1A70BF
:10133C00FA7E504913465B001344DB000B44103318
:10134C003A681A60FA7E4B4913465B001344DB0083
:10135C000B44143300221A70FA697B689A4250D9F4
:10136C00FA697B68D31A7B61FB7E5A1C4149134690
:10137C005B001344DB000B440C3319687B69FA7E69
:10138C00C91A3C4813465B001344DB0003440C337E
:10139C001960FA7E374913465B001344DB000B449B
:1013AC000C331B68002B09D1FA7E324913465B00C3
:1013BC001344DB000B44143301221A70FB7E5A1CBD
:1013CC0079692C4813465B001344DB0003440C334F
:1013DC001960FB7E5A1C274913465B001344DB0043
:1013EC000B440C331B68002B2CD1FB7E5A1C21495F
:1013FC0013465B001344DB000B44143301221A70B8
:10140C0020E0FA7E7968FB69C91A1A4813465B001A
:10141C001344DB0003440C331960FA7E1549134660
:10142C005B001344DB000B440C331B68002B09D10D
:10143C00FA7E104913465B001344DB000B44143353
:10144C0001221A70FA7E0B4913465B001344DB0031
:10145C000B4408331B7807E0FB7E0133FB76FB7EE5
:10146C00132B7FF60CAF002318462437BD46B0BCB7
:10147C00704700BFA4010020B0B485B000AF034694
:10148C00FB710023FB7387E0FA7B484913465B0032
:10149C001344DB000B441B68002B01D1002380E0BC
:1014AC00FA7B424913465B001344DB000B440833C0
:1014BC001B78FA799A426CD1FA7B3C4913465B0053
:1014CC001344DB000B4408331B787B73FB7B5A1CE7
:1014DC00364913465B001344DB000B441B68002B9E
:1014EC001DD0FB7B5A1C314913465B001344DB00B7
:1014FC000B440C331968FA7B2C4813465B001344DD
:10150C00DB0003440C331B68FA7B01321944274877
:10151C0013465B001344DB0003440C331960FB7B64
:10152C00BB7319E0BB7B5A1CB97B20480B465B0094
:10153C000B44DB0018441D4913465B001344DB00CD
:10154C000B4404461D460FCD0FC495E8030084E8F8
:10155C000300BB7B0133BB73BB7B122BE2D9134B58
:10156C000022C3F8C821114B0022C3F8CC210F4A2A
:10157C007B7B82F8D0310D4B0022C3F8D4210B4B6E
:10158C000022C3F8D821094B002283F8DC21012367
:10159C0007E0FB7B0133FB73FB7B132B7FF674AFF4
:1015AC00002318461437BD46B0BC7047A401002078
:1015BC00B0B48BB000AFB14B1B68002B01D1002332
:1015CC0057E1AE4B3C1D1D460FCD0FC495E80300F3
:1015DC0084E8030000237B62002387F8233042E178
:1015EC0097F82330132B0BD097F823305A1CA349B0
:1015FC0013465B001344DB000B441B68002B5CD1CF
:10160C0097F8232079689D4813465B001344DB0050
:10161C000344196097F82320B968984813465B0077
:10162C001344DB0003440433196097F82320387B00
:10163C00924913465B001344DB000B44083302460B
:10164C001A7097F8232079698C4813465B00134471
:10165C00DB0003441033196097F8232087491346A5
:10166C005B001344DB000B44143300221A707969BD
:10167C0097F823207B6AC91A804813465B001344F1
:10168C00DB0003440C33196097F823207B49134685
:10169C005B001344DB000B440C331B68002B0AD19A
:1016AC0097F82320754913465B001344DB000B4469
:1016BC00143301221A700123DBE097F823305A1CF3
:1016CC006E4913465B001344DB000B440C331B6860
:1016DC007A6A13447B627B697A6A9A4240F2A580EB
:1016EC0097F823207968654813465B001344DB00A8
:1016FC000344196097F82320B968604813465B00CF
:10170C001344DB0003440433196097F82320387B1F
:10171C005A4913465B001344DB000B440833024662
:10172C001A7097F823207969544813465B001344C8
:10173C00DB0003441033196097F823204F491346FC
:10174C005B001344DB000B44143300221A707B69DA
:10175C007A6AD31AFB6197F823305A1C474913460F
:10176C005B001344DB000B440C331968FB6997F8DE
:10177C002320C91A414813465B001344DB00034481
:10178C000C33196097F823203C4913465B00134433
:10179C00DB000B440C331B68002B0AD197F8232079
:1017AC00364913465B001344DB000B44143301220F
:1017BC001A7097F823305A1C304913465B001344B7
:1017CC00DB000B440C33196897F823202B48134685
:1017DC005B001344DB0003440C331B6897F8232095
:1017EC000132C91A254813465B001344DB0003443D
:1017FC000C33196097F823305A1C204913465B00B0
:10180C001344DB000B440C331B68002B0BD197F8F3
:10181C0023305A1C194913465B001344DB000B445C
:10182C00143301221A70012323E097F823305A1C39
:10183C0097F8231011480B465B000B44DB0018444F
:10184C000E4913465B001344DB000B4404461D4653
:10185C000FCD0FC495E8030084E8030097F82330FC
:10186C00013387F8233097F82330132B7FF6B8AE6B
:10187C00002318462C37BD46B0BC7047A40100208D
:10188C0080B483B000AF0023FB711FE0FB79144AD6
:10189C001B01134400221A60FB79114A1B011344EB
:1018AC00043300221A60FB790D4A1B0113440833E0
:1018BC004FF000021A60FB79094A1B0113440C33E8
:1018CC004FF000021A60FB790133FB71FB790B2B93
:1018DC00DCD900BF00BF0C37BD4680BC704700BFD1
:1018EC008403002080B586B000AFF860B9607A60E0
:1018FC000023FB7545E0FB7D264A1B0113441B6846
:10190C00002B3AD1FB7D234A1B011344FA681A6061
:10191C00FB7D204A1B0113440433BA681A601E492C
:10192C007868FEF7B9FE0346002B07D0FB7D194AF9
:10193C001B0113440833184A1A6015E017497868DC
:10194C00FEF7C8FE0346002B07D0FB7D114A1B0196
:10195C0013440833114A1A6006E0FB7D0D4A1B0143
:10196C00134408337A681A60FB7D0A4A1B0113443E
:10197C000C330B4A1A60FB7D07E000BFFB7D013383
:10198C00FB75FB7D0B2BB6D90C2318461837BD46BF
:10199C0080BD00BF84030020000058C100005841E6
:1019AC000000B44290B585B000AF78607B68FB60F6
:1019BC00FB681B68002B6DD0FB68DB684FF00001E7
:1019CC001846FEF769FE0346002B04D0FB684FF067
:1019DC000002DA600BE0FB68DB6830491846FEF762
:1019EC0079FE0346002B02D0FB682C4ADA60FB68B8
:1019FC001B681B68DB6A0133294AA2FB03239B0B80
:101A0C001846FEF753FC0446FB68DA68FB689B68D3
:101A1C0019461046FEF79AFB034622491846FEF774
:101A2C009DFC03461D491846FEF74CFD03461E4916
:101A3C001846FEF78BFB034619462046FEF78EFC34
:101A4C0003461846FEF750FE0346BB60FB685B6816
:101A5C00002B05D1FB681B681B68BA685A631AE037
:101A6C00FB685B68042B05D1FB681B681A68BB68B4
:101A7C00936310E0FB685B68082B05D1FB681B685F
:101A8C001A68BB68D36306E0FB681B681A68BB68FE
:101A9C00136400E000BF1437BD4690BD0000344312
:101AAC005917B7D10000FA440000FA4380B485B04E
:101ABC0000AF154B9B69144A43F001039361124B21
:101ACC009B6903F00103BB60BB680F4BDB690E4ADB
:101ADC0043F08053D3610C4BDB6903F080537B6084
:101AEC007B680A4B5B68FB60FB6823F0E063FB6080
:101AFC00FB6843F00073FB60044AFB68536000BF53
:101B0C001437BD4680BC70470010024000000140F5
:101B1C0080B586B000AF78607B681B68404A934202
:101B2C002CD1404B9B693F4A43F4006393613D4B7E
:101B3C009B6903F400637B617B6900220021182000
:101B4C0000F0D5FA182000F0EEFA0022002119203E
:101B5C0000F0CDFA192000F0E6FA002200211A203C
:101B6C0000F0C5FA1A2000F0DEFA002200211B203A
:101B7C0000F0BDFA1B2000F0D6FA4CE07B681B6825
:101B8C00B3F1804F14D1274BDB69264A43F0010394
:101B9C00D361244BDB6903F001033B613B690022F9
:101BAC0000211C2000F0A3FA1C2000F0BCFA32E04B
:101BBC007B681B681C4A934214D11A4BDB69194A87
:101BCC0043F00203D361174BDB6903F00203FB60A4
:101BDC00FB68002200211D2000F089FA1D2000F076
:101BEC00A2FA18E07B681B68104A934213D10D4B84
:101BFC00DB690C4A43F00403D3610A4BDB6903F045
:101C0C000403BB60BB68002200211E2000F06FFAA9
:101C1C001E2000F088FA00BF1837BD4680BD00BFFB
:101C2C00002C01400010024000040040000800405D
:101C3C0080B58AB000AF786007F1180300221A60F3
:101C4C005A609A60DA607B681B68B3F1804F18D1D8
:101C5C00384B9B69374A43F004039361354B9B69BE
:101C6C0003F004037B617B690F23BB610223FB61DF
:101C7C0002237B6207F1180319462F4800F06EFA15
:101C8C0053E07B681B682D4A934230D1294B9B69EA
:101C9C00284A43F004039361264B9B6903F0040329
:101CAC003B613B69234B9B69224A43F008039361D8
:101CBC00204B9B6903F00803FB60FB68C023BB61EE
:101CCC000223FB6102237B6207F1180319461A48B1
:101CDC0000F044FA0323BB610223FB6102237B6205
:101CEC0007F118031946164800F038FA1DE07B6816
:101CFC001B68144A934218D10E4B9B690D4A43F052
:101D0C00080393610B4B9B6903F00803BB60BB6832
:101D1C004FF47073BB610223FB6102237B6207F1FA
:101D2C0018031946064800F019FA00BF2837BD46BB
:101D3C0080BD00BF001002400008014000040040BC
:101D4C00000C01400008004080B400AFFEE780B4F6
:101D5C0000AFFEE780B400AFFEE780B400AFFEE753
:101D6C0080B400AFFEE780B400AF00BFBD4680BCBE
:101D7C00704780B400AF00BFBD4680BC704780B4D4
:101D8C0000AF00BFBD4680BC704780B500AF00F00F
:101D9C00BBF800BF80BD000080B500AF024801F069
:101DAC000DF900BF80BD00BF7800002080B500AFEA
:101DBC00024801F003F900BF80BD00BF780000208D
:101DCC0080B500AF024801F0F9F800BF80BD00BF3C
:101DDC007800002080B500AF024801F0EFF800BF9A
:101DEC0080BD00BF7800002080B500AF024801F034
:101DFC00E5F800BF80BD00BFC000002080B500AF7B
:101E0C00024801F0DBF800BF80BD00BF08010020D4
:101E1C0080B500AF024801F0D1F800BF80BD00BF13
:101E2C005001002080B400AF00BFBD4680BC70479D
:101E3C00FFF7F8FF0B480C490C4A002302E0D4587A
:101E4C00C4500433C4188C42F9D3094A094C0023FA
:101E5C0001E013600432A242FBD301F081FEFEF7D5
:101E6C0007FD7047000000201C000020F83B000814
:101E7C001C00002048040020FEE7000080B500AFE5
:101E8C00084B1B68074A43F010031360032000F053
:101E9C0023F90F2000F008F8FFF708FE002318467E
:101EAC0080BD00BF0020024080B582B000AF7860DA
:101EBC00124B1A68124B1B7819464FF47A73B3FB0A
:101ECC00F1F3B2FBF3F3184600F03BF90346002B99
:101EDC0001D001230EE07B680F2B0AD80022796811
:101EEC004FF0FF3000F003F9064A7B6813600023C3
:101EFC0000E0012318460837BD4680BD10000020C5
:101F0C00180000201400002080B400AF054B1B7893
:101F1C001A46054B1B681344034A136000BFBD46A9
:101F2C0080BC7047180000204404002080B400AF2F
:101F3C00024B1B681846BD4680BC70474404002009
:101F4C0080B485B000AF78607B6803F00703FB605A
:101F5C000C4BDB68BB60BA684FF6FF031340BB60E9
:101F6C00FB681A02BB68134343F0BF6343F40033AE
:101F7C00BB60044ABB68D36000BF1437BD4680BC4D
:101F8C00704700BF00ED00E080B400AF044BDB688D
:101F9C001B0A03F007031846BD4680BC704700BF00
:101FAC0000ED00E080B483B000AF0346FB7197F9FD
:101FBC000730002B0BDBFB7903F01F02064997F966
:101FCC0007305B09012000FA02F241F8232000BF20
:101FDC000C37BD4680BC704700E100E080B483B094
:101FEC0000AF03463960FB7197F90730002B0ADB11
:101FFC003B68DAB20C4997F907301201D2B20B44A4
:10200C0083F800230AE03B68DAB20849FB7903F055
:10201C000F03043B1201D2B20B441A7600BF0C37EB
:10202C00BD4680BC704700BF00E100E000ED00E061
:10203C0080B489B000AFF860B9607A60FB6803F0D7
:10204C000703FB61FB69C3F10703042B28BF0423BF
:10205C00BB61FB690433062B02D9FB69033B00E02F
:10206C0000237B614FF0FF32BB6902FA03F3DA43C2
:10207C00BB681A407B699A404FF0FF317B6901FACB
:10208C0003F3D9437B680B40134318462437BD46F2
:10209C0080BC704780B582B000AF78607B68013B34
:1020AC00B3F1807F01D301230FE00A4A7B68013B27
:1020BC0053600F214FF0FF30FFF790FF054B0022CC
:1020CC009A60044B07221A60002318460837BD4655
:1020DC0080BD00BF10E000E080B582B000AF78603A
:1020EC007868FFF72DFF00BF0837BD4680BD80B56F
:1020FC0086B000AF0346B9607A60FB7300237B6146
:10210C00FFF742FF78617A68B9687869FFF790FF4A
:10211C00024697F90F3011461846FFF75FFF00BFD4
:10212C001837BD4680BD80B582B000AF0346FB7149
:10213C0097F907301846FFF735FF00BF0837BD4643
:10214C0080BD80B582B000AF78607868FFF7A2FFE1
:10215C00034618460837BD4680BD000080B48BB0DE
:10216C0000AF7860396000237B6200233B6269E139
:10217C0001227B6A02FA03F3FB613B681B68FA6974
:10218C001340BB61BA69FB699A4240F058813B68C5
:10219C005B689A4A93425ED0984A934275D8984AA3
:1021AC00934258D0964A93426FD8964A934252D053
:1021BC00944A934269D8944A93424CD0924A93429F
:1021CC0063D8924A934246D0904A93425DD8122BE0
:1021DC002AD8122B59D801A252F823F063220008F6
:1021EC003D2200084F220008912200089722000887
:1021FC0097220008972200089722000897220008CF
:10220C0097220008972200089722000897220008BE
:10221C0097220008972200089722000897220008AE
:10222C004522000859220008794A934213D02CE029
:10223C003B68DB683B6229E03B68DB6804333B624C
:10224C0024E03B68DB6808333B621FE03B68DB68DB
:10225C000C333B621AE03B689B68002B02D10423D1
:10226C003B6213E03B689B68012B05D108233B6262
:10227C007B68FA691A6109E008233B627B68FA699A
:10228C005A6103E000233B6200E000BFBB69FF2BF7
:10229C0001D87B6801E07B6804337B61BB69FF2B51
:1022AC0002D87B6A9B0002E07B6A083B9B003B6187
:1022BC007B691A680F213B6901FA03F3DB431A406F
:1022CC00396A3B6901FA03F31A437B691A603B686C
:1022DC005B6803F08053002B00F0B1804D4B9B6981
:1022EC004C4A43F0010393614A4B9B6903F0010391
:1022FC00BB60BB68484A7B6A9B08023352F82330A8
:10230C00FB607B6A03F003039B000F2202FA03F3CA
:10231C00DB43FA681340FB607B68404A934213D05E
:10232C007B683F4A93420DD07B683E4A934207D06C
:10233C007B683D4A934201D1032306E0042304E069
:10234C00022302E0012300E000237A6A02F0030278
:10235C0092009340FA681343FB602F497B6A9B08F9
:10236C000233FA6841F823203B685B6803F480135E
:10237C00002B06D02D4B9A682C49BB6913438B60FC
:10238C0006E02A4B9A68BB69DB43284913408B60F3
:10239C003B685B6803F40013002B06D0234BDA6810
:1023AC002249BB691343CB6006E0204BDA68BB695A
:1023BC00DB431E491340CB603B685B6803F400337E
:1023CC00002B06D0194B5A681849BB6913434B6054
:1023DC0006E0164B5A68BB69DB43144913404B604B
:1023EC003B685B6803F48033002B21D00F4B1A68D9
:1023FC000E49BB6913430B6021E000BF0000321093
:10240C0000003110000022100000211000001210FA
:10241C0000001110001002400000014000080140B3
:10242C00000C014000100140001401400004014068
:10243C000B4B1A68BB69DB43094913400B607B6A81
:10244C0001337B623B681A687B6A22FA03F3002B28
:10245C007FF48EAE00BF00BF2C37BD4680BC7047EA
:10246C000004014080B483B000AF78600B467B80E1
:10247C0013467B707B78002B03D07A887B681A61BB
:10248C0003E07B881A047B681A6100BF0C37BD46D9
:10249C0080BC704780B485B000AF78600B467B8001
:1024AC007B68DB68FB607A88FB6813401A04FB6866
:1024BC00D9437B880B401A437B681A6100BF1437E1
:1024CC00BD4680BC7047000080B586B000AF786018
:1024DC007B68002B01D1012372E27B681B6803F03F
:1024EC000103002B00F08780924B5B6803F00C0318
:1024FC00042B0CD08F4B5B6803F00C03082B12D110
:10250C008C4B5B6803F48033B3F5803F0BD1894B64
:10251C001B6803F40033002B6CD07B685B68002BCA
:10252C0068D101234CE27B685B68B3F5803F06D130
:10253C00804B1B687F4A43F4803313602EE07B682A
:10254C005B68002B0CD17B4B1B687A4A23F48033DD
:10255C001360784B1B68774A23F4802313601DE0CB
:10256C007B685B68B3F5A02F0CD1724B1B68714A6A
:10257C0043F4802313606F4B1B686E4A43F4803323
:10258C0013600BE06B4B1B686A4A23F480331360B7
:10259C00684B1B68674A23F4802313607B685B6875
:1025AC00002B13D0FFF7C2FC386108E0FFF7BEFC2C
:1025BC0002463B69D31A642B01D9032300E25D4B1D
:1025CC001B6803F40033002BF0D014E0FFF7AEFCD3
:1025DC00386108E0FFF7AAFC02463B69D31A642B6A
:1025EC0001D90323ECE1534B1B6803F40033002B9C
:1025FC00F0D100E000BF7B681B6803F00203002BE6
:10260C0063D04C4B5B6803F00C03002B0BD0494B95
:10261C005B6803F00C03082B1CD1464B5B6803F47E
:10262C008033002B16D1434B1B6803F00203002BA5
:10263C0005D07B681B69012B01D00123C0E13D4B08
:10264C001B6823F0F8027B685B69DB003949134394
:10265C000B603AE07B681B69002B20D0364B0122C3
:10266C001A60FFF763FC386108E0FFF75FFC024675
:10267C003B69D31A022B01D90323A1E12D4B1B6813
:10268C0003F00203002BF0D02A4B1B6823F0F80256
:10269C007B685B69DB00274913430B6015E0264B15
:1026AC0000221A60FFF742FC386108E0FFF73EFC9D
:1026BC0002463B69D31A022B01D9032380E11D4B3F
:1026CC001B6803F00203002BF0D17B681B6803F03E
:1026DC000803002B3AD07B689B69002B19D0174B51
:1026EC0001221A60FFF722FC386108E0FFF71EFC9C
:1026FC0002463B69D31A022B01D9032360E10D4B2F
:10270C005B6A03F00203002BF0D0012000F09CFA6E
:10271C001CE00A4B00221A60FFF708FC38610FE03E
:10272C00FFF704FC02463B69D31A022B08D903239A
:10273C0046E100BF001002400000424280044242C9
:10274C00924B5B6A03F00203002BE9D17B681B6898
:10275C0003F00403002B00F0A6800023FB758B4BC9
:10276C00DB6903F08053002B0DD1884BDB69874A62
:10277C0043F08053D361854BDB6903F08053BB601E
:10278C00BB680123FB75824B1B6803F48073002B21
:10279C0018D17F4B1B687E4A43F480731360FFF79C
:1027AC00C5FB386108E0FFF7C1FB02463B69D31A51
:1027BC00642B01D9032303E1754B1B6803F480736D
:1027CC00002BF0D07B68DB68012B06D16F4B1B6AAA
:1027DC006E4A43F0010313622DE07B68DB68002B2B
:1027EC000CD16A4B1B6A694A23F001031362674BD5
:1027FC001B6A664A23F0040313621CE07B68DB68E7
:10280C00052B0CD1614B1B6A604A43F00403136225
:10281C005E4B1B6A5D4A43F0010313620BE05B4B9A
:10282C001B6A5A4A23F001031362584B1B6A574A1E
:10283C0023F0040313627B68DB68002B15D0FFF7D1
:10284C0075FB38610AE0FFF771FB02463B69D31A4E
:10285C0041F28832934201D90323B1E04B4B1B6AFE
:10286C0003F00203002BEED014E0FFF75FFB38619E
:10287C000AE0FFF75BFB02463B69D31A41F2883250
:10288C00934201D903239BE0404B1B6A03F00203E4
:10289C00002BEED1FB7D012B05D13C4BDB693B4A78
:1028AC0023F08053D3617B68DB69002B00F08780B9
:1028BC00364B5B6803F00C03082B61D07B68DB693B
:1028CC00022B46D1334B00221A60FFF72FFB3861E5
:1028DC0008E0FFF72BFB02463B69D31A022B01D908
:1028EC0003236DE0294B1B6803F00073002BF0D120
:1028FC007B681B6AB3F5803F08D1244B5B6823F4DB
:10290C0000327B689B68214913434B601F4B5B680B
:10291C0023F474127B68196A7B685B6A0B431B494E
:10292C0013434B601B4B01221A60FFF7FFFA38610F
:10293C0008E0FFF7FBFA02463B69D31A022B01D9D8
:10294C0003233DE0114B1B6803F00073002BF0D008
:10295C0035E0104B00221A60FFF7E8FA386108E006
:10296C00FFF7E4FA02463B69D31A022B01D9032381
:10297C0026E0064B1B6803F00073002BF0D11EE021
:10298C007B68DB69012B07D1012319E000100240A1
:10299C0000700040600042420B4B5B68FB60FB68C0
:1029AC0003F480327B681B6A9A4206D1FB6803F4FD
:1029BC0070127B685B6A9A4201D0012300E000230D
:1029CC0018461837BD4680BD0010024080B584B053
:1029DC0000AF786039607B68002B01D10123D0E017
:1029EC006A4B1B6803F007033A689A4210D9674B8D
:1029FC001B6823F0070265493B6813430B60634B6C
:102A0C001B6803F007033A689A4201D00123B8E02F
:102A1C007B681B6803F00203002B20D07B681B68CB
:102A2C0003F00403002B05D0594B5B68584A43F460
:102A3C00E06353607B681B6803F00803002B05D030
:102A4C00534B5B68524A43F460535360504B5B6882
:102A5C0023F0F0027B689B684D4913434B607B6805
:102A6C001B6803F00103002B40D07B685B68012BD3
:102A7C0007D1474B1B6803F40033002B15D10123FE
:102A8C007FE07B685B68022B07D1414B1B6803F02E
:102A9C000073002B09D1012373E03D4B1B6803F03D
:102AAC000203002B01D101236BE0394B5B6823F04F
:102ABC0003027B685B68364913434B60FFF736FAB9
:102ACC00F8600AE0FFF732FA0246FB68D31A41F2CB
:102ADC008832934201D9032353E02D4B5B6803F0FA
:102AEC000C027B685B689B009A42EBD1274B1B68FE
:102AFC0003F007033A689A4210D2244B1B6823F068
:102B0C00070222493B6813430B60204B1B6803F000
:102B1C0007033A689A4201D0012332E07B681B68B4
:102B2C0003F00403002B08D0194B5B6823F4E0621C
:102B3C007B68DB68164913434B607B681B6803F0AA
:102B4C000803002B09D0124B5B6823F460527B689E
:102B5C001B69DB000E4913434B6000F021F8024661
:102B6C000B4B5B681B0903F00F030A49CB5C22FA81
:102B7C0003F3094A1360094B1B681846FFF794F9D5
:102B8C00002318461037BD4680BD00BF0020024010
:102B9C0000100240CC3B0008100000201400002064
:102BAC0080B487B000AF0023FB600023BB60002320
:102BBC007B6100237B6000233B611E4B5B68FB60E9
:102BCC00FB6803F00C03042B02D0082B03D027E086
:102BDC00194B3B6127E0FB689B0C03F00F03174A72
:102BEC00D35C7B60FB6803F48033002B10D0114B5B
:102BFC005B685B0C03F00103114AD35CBB607B6820
:102C0C000D4A03FB02F2BB68B2FBF3F37B6104E0F9
:102C1C007B680C4A02FB03F37B617B693B6102E03E
:102C2C00054B3B6100BF3B6918461C37BD4680BC59
:102C3C00704700BF0010024000127A00DC3B000815
:102C4C00EC3B000800093D0080B485B000AF786013
:102C5C000A4B1B680A4AA2FB03235B0A7A6802FB35
:102C6C0003F3FB6000BFFB685A1EFA60002BF9D11E
:102C7C0000BF00BF1437BD4680BC70471000002059
:102C8C00D34D621080B582B000AF78607B68002BAA
:102C9C0001D1012341E07B6893F83D30DBB2002B7E
:102CAC0006D17B68002283F83C207868FEF730FF61
:102CBC007B68022283F83D207B681A687B680433AA
:102CCC001946104600F030FC7B68012283F8462040
:102CDC007B68012283F83E207B68012283F83F2029
:102CEC007B68012283F840207B68012283F8412015
:102CFC007B68012283F842207B68012283F8432001
:102D0C007B68012283F844207B68012283F84520EC
:102D1C007B68012283F83D20002318460837BD4606
:102D2C0080BD000080B485B000AF78607B6893F8FC
:102D3C003D30DBB2012B01D001233AE07B6802224B
:102D4C0083F83D207B681B68DA687B681B6842F05F
:102D5C000102DA607B681B68184A93420ED07B68CC
:102D6C001B68B3F1804F09D07B681B68144A9342EF
:102D7C0004D07B681B68134A934211D17B681B6893
:102D8C009B6803F00703FB60FB68062B10D07B6885
:102D9C001B681A687B681B6842F001021A6007E026
:102DAC007B681B681A687B681B6842F001021A601A
:102DBC00002318461437BD4680BC7047002C0140D8
:102DCC00000400400008004080B582B000AF78607D
:102DDC007B68002B01D1012341E07B6893F83D30E7
:102DEC00DBB2002B06D17B68002283F83C2078688C
:102DFC0000F039F87B68022283F83D207B681A6862
:102E0C007B6804331946104600F08EFB7B68012268
:102E1C0083F846207B68012283F83E207B680122E0
:102E2C0083F83F207B68012283F840207B680122D5
:102E3C0083F841207B68012283F842207B680122C1
:102E4C0083F843207B68012283F844207B680122AD
:102E5C0083F845207B68012283F83D200023184627
:102E6C000837BD4680BD80B483B000AF786000BF2A
:102E7C000C37BD4680BC704780B584B000AF78601D
:102E8C0039603B68002B09D17B6893F83E30DBB28C
:102E9C00012B14BF01230023DBB222E03B68042B7F
:102EAC0009D17B6893F83F30DBB2012B14BF0123AF
:102EBC000023DBB215E03B68082B09D17B6893F843
:102ECC004030DBB2012B14BF01230023DBB208E03E
:102EDC007B6893F84130DBB2012B14BF0123002334
:102EEC00DBB2002B01D001235EE03B68002B04D148
:102EFC007B68022283F83E2013E03B68042B04D14C
:102F0C007B68022283F83F200BE03B68082B04D13E
:102F1C007B68022283F8402003E07B68022283F85E
:102F2C0041207B681B6801223968184600F07CFD43
:102F3C007B681B681E4A934207D17B681B685A6CDE
:102F4C007B681B6842F400425A647B681B68184A11
:102F5C0093420ED07B681B68B3F1804F09D07B681D
:102F6C001B68144A934204D07B681B68124A934234
:102F7C0011D17B681B689B6803F00703FB60FB683F
:102F8C00062B10D07B681B681A687B681B6842F0A4
:102F9C0001021A6007E07B681B681A687B681B6873
:102FAC0042F001021A60002318461037BD4680BD5E
:102FBC00002C0140000400400008004080B582B0A5
:102FCC0000AF78607B681B681B6903F00203022B5F
:102FDC0022D17B681B68DB6803F00203022B1BD138
:102FEC007B681B686FF002021A617B6801221A77FA
:102FFC007B681B689B6903F00303002B03D0786884
:10300C0000F076FA05E0786800F069FA786800F06C
:10301C0078FA7B6800221A777B681B681B6903F0BF
:10302C000403042B22D17B681B68DB6803F00403C8
:10303C00042B1BD17B681B686FF004021A617B6840
:10304C0002221A777B681B689B6903F44073002B80
:10305C0003D0786800F04CFA05E0786800F03FFA8D
:10306C00786800F04EFA7B6800221A777B681B6840
:10307C001B6903F00803082B22D17B681B68DB68F3
:10308C0003F00803082B1BD17B681B686FF0080248
:10309C001A617B6804221A777B681B68DB6903F072
:1030AC000303002B03D0786800F022FA05E078685F
:1030BC0000F015FA786800F024FA7B6800221A7781
:1030CC007B681B681B6903F01003102B22D17B68F3
:1030DC001B68DB6803F01003102B1BD17B681B688B
:1030EC006FF010021A617B6808221A777B681B68E4
:1030FC00DB6903F44073002B03D0786800F0F8F917
:10310C0005E0786800F0EBF9786800F0FAF97B6874
:10311C0000221A777B681B681B6903F00103012BE3
:10312C000ED17B681B68DB6803F00103012B07D110
:10313C007B681B686FF001021A617868FDF788FEE6
:10314C007B681B681B6903F08003802B0ED17B68A6
:10315C001B68DB6803F08003802B07D17B681B683E
:10316C006FF080021A61786800F0E9FC7B681B68DC
:10317C001B6903F04003402B0ED17B681B68DB6896
:10318C0003F04003402B07D17B681B686FF04002B3
:10319C001A61786800F0BEF97B681B681B6903F044
:1031AC002003202B0ED17B681B68DB6803F0200307
:1031BC00202B07D17B681B686FF020021A6178689E
:1031CC0000F0B4FC00BF0837BD4680BD80B586B0AA
:1031DC0000AFF860B9607A600023FB75FB6893F868
:1031EC003C30012B01D10223AEE0FB68012283F8B5
:1031FC003C207B680C2B00F29F8001A252F823F03C
:10320C0041320008453300084533000845330008B7
:10321C008132000845330008453300084533000867
:10322C00C332000845330008453300084533000815
:10323C0003330008FB681B68B968184600F0D6F920
:10324C00FB681B689A69FB681B6842F008029A616C
:10325C00FB681B689A69FB681B6822F004029A6180
:10326C00FB681B689969BB681A69FB681B680A4391
:10327C009A6164E0FB681B68B968184600F01CFA98
:10328C00FB681B689A69FB681B6842F400629A61D0
:10329C00FB681B689A69FB681B6822F480629A6160
:1032AC00FB681B689969BB681B691A02FB681B6881
:1032BC000A439A6143E0FB681B68B968184600F042
:1032CC0065FAFB681B68DA69FB681B6842F0080248
:1032DC00DA61FB681B68DA69FB681B6822F0040280
:1032EC00DA61FB681B68D969BB681A69FB681B68E3
:1032FC000A43DA6123E0FB681B68B968184600F0E2
:10330C00AFFAFB681B68DA69FB681B6842F4006261
:10331C00DA61FB681B68DA69FB681B6822F480625F
:10332C00DA61FB681B68D969BB681B691A02FB6808
:10333C001B680A43DA6102E00123FB7500BFFB68DE
:10334C00002283F83C20FB7D18461837BD4680BD13
:10335C0080B584B000AF786039600023FB737B6864
:10336C0093F83C30012B01D10223B4E07B6801229D
:10337C0083F83C207B68022283F83D207B681B6825
:10338C009B68BB60BB6823F07703BB60BB6823F40E
:10339C007F43BB607B681B68BA689A603B681B689C
:1033AC00B3F5005F3ED0B3F5005F00F28780B3F554
:1033BC00805F00F08680B3F5805F7FD8702B1AD0C9
:1033CC00702B7BD8602B50D0602B77D8502B3CD0F7
:1033DC00502B73D8402B58D0402B6FD8302B64D047
:1033EC00302B6BD8202B60D0202B67D8002B5CD0D7
:1033FC00102B5AD062E07B6818683B6899683B6870
:10340C005A683B68DB6800F0F0FA7B681B689B68C5
:10341C00BB60BB6843F07703BB607B681B68BA6812
:10342C009A604FE07B6818683B6899683B685A68FB
:10343C003B68DB6800F0D9FA7B681B689A687B688C
:10344C001B6842F480429A603CE07B6818683B68D9
:10345C0059683B68DB681A4600F050FA7B681B68B9
:10346C005021184600F0A7FA2CE07B6818683B68DE
:10347C0059683B68DB681A4600F06EFA7B681B687B
:10348C006021184600F097FA1CE07B6818683B68CE
:10349C0059683B68DB681A4600F030FA7B681B6899
:1034AC004021184600F087FA0CE07B681A683B68EC
:1034BC001B681946104600F07EFA03E00123FB73EB
:1034CC0000E000BF7B68012283F83D207B6800226E
:1034DC0083F83C20FB7B18461037BD4680BD80B47A
:1034EC0083B000AF786000BF0C37BD4680BC70471E
:1034FC0080B483B000AF786000BF0C37BD4680BC91
:10350C00704780B483B000AF786000BF0C37BD4605
:10351C0080BC704780B483B000AF786000BF0C37BC
:10352C00BD4680BC7047000080B485B000AF7860A9
:10353C0039607B681B68FB607B68294A93420BD01F
:10354C007B68B3F1804F07D07B68264A934203D047
:10355C007B68254A934208D1FB6823F07003FB601B
:10356C003B685B68FA681343FB607B681C4A9342B8
:10357C000BD07B68B3F1804F07D07B68194A93421C
:10358C0003D07B68184A934208D1FB6823F440733C
:10359C00FB603B68DB68FA681343FB60FB6823F055
:1035AC0080023B685B691343FB607B68FA681A60B6
:1035BC003B689A687B68DA623B681A687B689A6237
:1035CC007B68074A934203D13B681A697B681A638C
:1035DC007B6801225A6100BF1437BD4680BC70471E
:1035EC00002C0140000400400008004080B487B06B
:1035FC0000AF786039607B681B6A7B617B681B6AF3
:10360C0023F001027B681A627B685B683B617B6814
:10361C009B69FB60FB6823F07003FB60FB6823F085
:10362C000303FB603B681B68FA681343FB607B6910
:10363C0023F002037B613B689B687A6913437B61CF
:10364C007B681C4A93420CD17B6923F008037B6195
:10365C003B68DB687A6913437B617B6923F0040365
:10366C007B617B68134A934211D13B6923F48073CD
:10367C003B613B6923F400733B613B685B693A69CE
:10368C0013433B613B689B693A6913433B617B681D
:10369C003A695A607B68FA689A613B685A687B6839
:1036AC005A637B687A691A6200BF1C37BD4680BCBE
:1036BC00704700BF002C014080B487B000AF786029
:1036CC0039607B681B6A7B617B681B6A23F0100284
:1036DC007B681A627B685B683B617B689B69FB60FB
:1036EC00FB6823F4E043FB60FB6823F44073FB604E
:1036FC003B681B681B02FA681343FB607B6923F071
:10370C0020037B613B689B681B017A6913437B61D7
:10371C007B681D4A93420DD17B6923F080037B614A
:10372C003B68DB681B017A6913437B617B6923F07F
:10373C0040037B617B68144A934213D13B6923F4A9
:10374C0080633B613B6923F400633B613B685B69CD
:10375C009B003A6913433B613B689B699B003A6948
:10376C0013433B617B683A695A607B68FA689A61DB
:10377C003B685A687B689A637B687A691A6200BFF7
:10378C001C37BD4680BC7047002C014080B487B00C
:10379C0000AF786039607B681B6A7B617B681B6A51
:1037AC0023F480727B681A627B685B683B617B6880
:1037BC00DB69FB60FB6823F07003FB60FB6823F0A4
:1037CC000303FB603B681B68FA681343FB607B696F
:1037DC0023F400737B613B689B681B027A6913437B
:1037EC007B617B681D4A93420DD17B6923F4006396
:1037FC007B613B68DB681B027A6913437B617B69E5
:10380C0023F480637B617B68144A934213D13B6938
:10381C0023F480533B613B6923F400533B613B68C9
:10382C005B691B013A6913433B613B689B691B0154
:10383C003A6913433B617B683A695A607B68FA6862
:10384C00DA613B685A687B68DA637B687A691A626A
:10385C0000BF1C37BD4680BC704700BF002C014028
:10386C0080B487B000AF786039607B681B6A3B61BD
:10387C007B681B6A23F480527B681A627B685B68E6
:10388C007B617B68DB69FB60FB6823F4E043FB60D6
:10389C00FB6823F44073FB603B681B681B02FA68EF
:1038AC001343FB603B6923F400533B613B689B680B
:1038BC001B033A6913433B617B680F4A934209D15E
:1038CC007B6923F480437B613B685B699B017A696C
:1038DC0013437B617B687A695A607B68FA68DA61AA
:1038EC003B685A687B681A647B683A691A6200BF45
:1038FC001C37BD4680BC7047002C014080B487B09B
:10390C0000AFF860B9607A60FB681B6A7B61FB688A
:10391C001B6A23F00102FB681A62FB689B693B611E
:10392C003B6923F0F0033B617B681B013A6913434D
:10393C003B617B6923F00A037B617A69BB681343A3
:10394C007B61FB683A699A61FB687A691A6200BF0D
:10395C001C37BD4680BC704780B487B000AFF860A0
:10396C00B9607A60FB681B6A7B61FB681B6A23F099
:10397C001002FB681A62FB689B693B613B6923F48C
:10398C0070433B617B681B033A6913433B617B6962
:10399C0023F0A0037B61BB681B017A6913437B6135
:1039AC00FB683A699A61FB687A691A6200BF1C3736
:1039BC00BD4680BC704780B485B000AF786039607C
:1039CC007B689B68FB60FB6823F07003FB603A68C4
:1039DC00FB68134343F00703FB607B68FA689A604B
:1039EC0000BF1437BD4680BC704780B487B000AFB1
:1039FC00F860B9607A603B60FB689B687B617B69AF
:103A0C0023F47F437B613B681A027B681A43BB68D3
:103A1C0013437A6913437B61FB687A699A6000BF30
:103A2C001C37BD4680BC704780B487B000AFF860CF
:103A3C00B9607A60BB6803F01F03012202FA03F33A
:103A4C007B61FB681A6A7B69DB431A40FB681A626C
:103A5C00FB681A6ABB6803F01F03796801FA03F369
:103A6C001A43FB681A6200BF1C37BD4680BC704706
:103A7C0080B485B000AF786039607B6893F83C30D7
:103A8C00012B01D1022346E07B68012283F83C2004
:103A9C007B68022283F83D207B681B685B68FB60B7
:103AAC007B681B689B68BB60FB6823F07003FB6042
:103ABC003B681B68FA681343FB607B681B68FA68F9
:103ACC005A607B681B68164A93420ED07B681B6851
:103ADC00B3F1804F09D07B681B68124A934204D023
:103AEC007B681B68104A93420CD1BB6823F080039F
:103AFC00BB603B685B68BA681343BB607B681B6840
:103B0C00BA689A607B68012283F83D207B680022AA
:103B1C0083F83C20002318461437BD4680BC704700
:103B2C00002C0140000400400008004080B483B029
:103B3C0000AF786000BF0C37BD4680BC704780B4C6
:103B4C0083B000AF786000BF0C37BD4680BC7047B7
:103B5C0003460244934200D1704703F8011BF9E776
:103B6C0070B500260C4D0D4C641BA410A64209D157
:103B7C0000F01AF800260A4D0A4C641BA410A64249
:103B8C0005D170BD55F8043B98470136EEE755F862
:103B9C00043B98470136F2E7F03B0008F03B000885
:103BAC00F03B0008F43B0008F8B500BFF8BC08BCBB
:103BBC009E467047F8B500BFF8BC08BC9E467047DF
:103BCC0000000000000000000102030406070809C1
:103BDC0002030405060708090A0B0C0D0E0F101042
:043BEC0001020000D2
:043BF0003101000897
:043BF4000D010008B7
:103BF8000C0C0C0C0C0C0C0C0C0C0C0C040404041D
:0C3C08000024F400100000000100000087
:0400000508001E3D94
:00000001FF
